:020000040800F2
:1000000088040020BD1200083112000833120008D5
:1000100035120008371200083912000800000000ED
:100020000000000000000000000000003B1200087B
:100030003D120008000000003F12000841120008B5
:10004000E9120008ED120008F1120008F51200088C
:10005000F9120008FD12000801130008051300083A
:10006000091300080D1300081113000845120008B9
:1000700015130008191300081D13000821130008A8
:1000800025130008291300082D1300083113000858
:1000900035130008391300083D1300084113000808
:1000A00045130008491300084D13000851130008B8
:1000B00055130008591300085D1300086113000868
:1000C00065130008691300086D1300087113000818
:1000D00075130008791300087D13000881130008C8
:1000E00085130008891300088D1300089113000878
:1000F00095130008991300089D130008A113000828
:10010000A5130008A9130008AD130008B1130008D7
:10011000B5130008B9130008BD130008C113000887
:10012000C5130008C9130008CD130008D113000837
:100130002DE9F843040016D02078DFF84C64C1079D
:1001400013D5706800F00C00042807D0706800F028
:100150000C00082841D17068C1033ED53068810386
:1001600003D56068002800F064812078DFF82874E7
:10017000810719D5706810F00C0F07D0706800F077
:100180000C00082861D17068C1035ED43068810713
:1001900003D52069012840F04C813168606921F065
:1001A000F80141EAC00131602178080740F18180FF
:1001B000A069DFF8E813002800F0A68001220A6099
:1001C00000F01EFA0546706A810763D400F018FA41
:1001D000401B0228F7D903202EE16068B0F5803F6C
:1001E00004D1306840F48030306014E008B93068E1
:1001F0000AE0B0F5A02F306806D140F480203060CE
:10020000316841F4803105E020F48030306031689D
:1002100021F480213160606858B100F0F1F90546A1
:1002200030688103A1D400F0EBF9401B6528F7D3B7
:10023000D1E700F0E5F905463068810395D500F077
:10024000DFF9401B6528F7D3C5E72069A8B1012174
:10025000396000F0D5F905463068810705D400F013
:10026000CFF9401B0228F7D9B5E73068616920F063
:10027000F80040EAC100306096E7386000F0C0F94D
:100280000546316888078FD500F0BAF9401B02286F
:10029000F7D9A0E7DFF8F4020168C9084FF47A72D1
:1002A000B1FBF2F2009200BF0098411E00280091BD
:1002B000F9D1207841076ED5F0690025C10009D435
:1002C000F06940F08050F0610125F06900F0805045
:1002D00000900098DFF8C882D8F80000C10520D44B
:1002E000D8F8000040F48070C8F8000000F088F9E9
:1002F0008146D8F80000C10513D400F081F9A0EBC5
:1003000009006528F5D366E7086000F079F905462D
:10031000706A8107CDD500F073F9401B0228F7D928
:1003200059E7E068012808D008B9306A09E00528D3
:10033000306A06D140F004003062306A40F00100BB
:1003400005E0400840003062306A20F0040030626E
:1003500041F28938E06860B100F052F98146306AB4
:10036000810713D400F04CF9A0EB09004045F6D307
:1003700031E700F045F98146306A810706D500F083
:100380003FF9A0EB09004045F6D324E71DB1F06921
:1003900020F08050F061E06900284CD0716801F0D5
:1003A0000C01082938D002282AD100F047F8054668
:1003B0003068810105D500F023F9401B0228F7D9E8
:1003C00009E7206AB0F5803F05D17168A06821F483
:1003D0000031014371607268206A616A22F474120C
:1003E00002430A437260012000F029F80446306895
:1003F000810120D400F004F9001B0228F7D9EAE6B5
:1004000000F01CF804463068810114D500F0F8F8BB
:10041000001B0228F7D9DEE601280AD07068226A9C
:1004200000F48031914202BF00F47010616A88428A
:1004300001D0012000E00020BDE8F28300203866F2
:1004400000F0DEB82DE9F041040088464ED0554E4C
:1004500000F077F802D200F06FF847D120684A4DDB
:10046000810712D5400703D5696841F4E0616960EE
:100470002078010703D5686840F4605068606968B7
:10048000A06821F0F001014369602178C80725D5F3
:100490006068012802D129688A0303E002282968DC
:1004A00002D18A0102D421E08A071FD56968890830
:1004B00040EA8100686000F0A3F807466868616858
:1004C00000F00C00B0EB810F08D000F099F8C01BD1
:1004D00041F289318842F1D303202BE0306800F0EB
:1004E0000700804504D200F027F801D0012021E068
:1004F0002078410705D56A68E06822F4E06202438B
:100500006A602178080706D56968206921F460517E
:1005100041EAC001696000F019F86A6822491B4B82
:10052000C2F30312895CC84018601A48006800F0E2
:100530006DF80020BDE8F0813168C90848EAC101C2
:100540003160306800F00700404570471749104897
:100550000A6802F00C03082B00D0704710B500BFEA
:1005600014A4C2F38343D203E35C08D5096858435B
:1005700014A3C1F340415A5CB0FBF2F010BD184621
:100580000B49484310BD0000001002400C00002041
:1005900000127A000800002000004242800442421B
:1005A0000070004000200240AC120008041002401D
:1005B00000093D0002030405060708090A0B0C0D9B
:1005C0000E0F1010010230B4002513E050F8042B78
:1005D000D30744BFA9F101039A18091F042942F85F
:1005E000045BFAD213468C0744BF15809B1CC907D5
:1005F00048BF1D7050F8041B0029E7D130BC70477C
:1006000001484068704700BF0000002038B50D4D1C
:100610000D4B2A7804464FF47A711868B1FBF2F258
:10062000B0FBF2F000F054F850B9102C08D20022C0
:1006300021464FF0FF3000F023F8AC60002032BDBF
:10064000012032BD000000200C0000200901020042
:1006500002D4294881547047284B02F00F021A44F3
:1006600002F8041C7047264B19684FF6FF0200027F
:10067000114000F4E06008432249084318607047C5
:1006800070B51F4B1C68C4F302230124C3F1070596
:10069000052D2EBF0F2504FA05F56D1E1E1D072E14
:1006A00034BF0023DB1E2940994004FA03F3BDE860
:1006B00070405B1E1A401143C8E7010007D40122B5
:1006C00000F01F01104B8A40400943F8202070477A
:1006D00010B5401EB0F1807F01D3012010BD0B4C3E
:1006E00060600F214FF0FF30FFF7B0FF0021A160E5
:1006F00007202060002010BD00E400E018ED00E0BD
:100700000CED00E00000FA0500E100E010E000E080
:1007100070B508B9012070BD0368DFF83052AB42F4
:1007200000F138040BD2DFF82812CA181426B2FBE5
:10073000F6F29200DFF81C52A26065600AE0DFF872
:100740001812CA181425B2FBF5F29200DFF80C1249
:10075000A2606160022280F821201D6841688268E1
:100760006FF30D150D43C168154302690D434169CF
:10077000154382690D43C16915430D431D60002374
:100780002360012280F8212080F82030002070BDF5
:100790002DE9F84F00F1280204275169704E0B68CB
:1007A0000468DFF8D0B125689169DFF8C4C1DFF8CB
:1007B000BCE1DFF8B481DFF8AC91DFF890A18DF8EF
:1007C00000109DF800108F403B424AD0690748D581
:1007D0002368990603D4236823F0040323604FF4AD
:1007E00080230168B1424FF480444FF4806511D9F1
:1007F000514508BF04230AD0494508BF402306D00D
:10080000414508BF2B4602D0714508BF2346CCF8AE
:10081000003020E0594517D0574FB94216D0574FF6
:10082000B94215D0564DA9420EBF2346554CA142A0
:100830000FD0554DA94208BF4FF4800309D0B142F3
:1008400007D14FF0806304E0042302E0402300E07E
:100850002B464E490B605168002975D0BDE8F44F16
:1008600008479DF8001002278F403B424FD0A90750
:100870004DD52368990606D4236823F00A03236024
:10088000012180F821104FF400330168B1424FF488
:1008900000544FF4007511D9514508BF02230AD006
:1008A000494508BF202306D0414508BF2B4602D04A
:1008B000714508BF2346CCF8003020E0594517D0D9
:1008C0002D4FB94216D02D4FB94215D02C4DA9420B
:1008D0000EBF23462B4CA1420FD02B4DA94208BF7F
:1008E0004FF4001309D0B14207D14FF0007304E078
:1008F000022302E0202300E02B4624490B60002362
:1009000080F820301168F9B1BDE8F44F08479DF830
:10091000001008268E40334216D0290714D52368CC
:1009200023F00E0323600124916953698C405C60BD
:100930000121116180F82110002180F820109168B8
:1009400011B1BDE8F44F0847BDE8F18F080402403B
:10095000F8FFFDBF00000240F8FBFDBF00040240AD
:10096000800002401C040240300402404404024063
:1009700004040240080002401C0002403000024013
:1009800044000240580002406C0002400400024053
:10099000F8B5044600270026002C7AD004F124057F
:1009A000686820B9AE602870204600F065F92046DE
:1009B00000F002F96968CA066CD401006AD169685E
:1009C00021F4885141F0020169602368DFF8CC11FD
:1009D000E269D4F804C08B4204BFB2F5402F4FF453
:1009E0000022217B42EA0C02D4F808C0BCF5807FCB
:1009F00014BFBCF1010F4FF4807794F814C0BCF120
:100A0000010F42EA41020FD131B9A169491E4903E0
:100A100041F400610F4307E0696841F0200169601B
:100A2000A96841F00101A960596821F469410F43A7
:100A30005F602368DFF868119F680F4017439F606D
:100A4000A168B1F5807F18BF012902D12669761E01
:100A500036052168CB6A23F470031E43CE622468F6
:100A6000DFF84011A3680B40934208D10022AA602E
:100A7000696821F0020141F001016960F2BD686816
:100A800020F0020040F010006860A86840F001000B
:100A9000A86003E0686840F0100068600120F2BDC3
:100AA000F8B50A46002100F1240300911C78012CBE
:100AB00001D10220F2BD01241C701F275468156863
:100AC0000668072C08D2641E04EB8404D6F834C0F0
:100AD00000F05EF8756312E00D2C08D2E41F04EB01
:100AE0008404D6F830C000F053F8356307E00D3CBD
:100AF00004EB8404D6F82CC000F04AF8F56207270E
:100B00001668946805680A2E08D30A3E06EB460666
:100B1000D5F80CC000F036F8EC6006E006EB4606AF
:100B2000D5F810C000F02EF82C611468102C18BFF6
:100B3000112C23D100681D4CA0421AD11C48056815
:100B40002C021BD4056845F40005056010681028C8
:100B500014D1154A174D1468B4FBF5F50A20454326
:100B60000095009800281EBF0098401E0090F8D104
:100B700004E00121586840F02000586000201870FF
:100B80000846F2BDB7402CEA0707B4403C43704723
:100B9000A7402CEA0707A5403D437047003C0140B1
:100BA000FDF7E1FFFE0E1FFF0C00002000240140B6
:100BB0000824014040420F0038B50446206881688F
:100BC000CA071BD58168490849008160FFF718FDF5
:100BD000054600F015F811D5FFF712FD401B03285C
:100BE000F7D300F00DF8F4D5A16A41F01001A1622D
:100BF000E06A40F00100E062012032BD002032BD19
:100C000020688168C80770471FB50C22002168461C
:100C100000F080F84FF48071384C3948A1602060B2
:100C20004FF46021E1610020012220756060032102
:100C3000227321612046FFF7ABFE08B100F0C5F832
:100C40000020012100900191029000F011F808B1FC
:100C500000F0BBF8022000F00AF808B100F0B5F887
:100C6000032000F004F808B100F0AFF81FBD0190B8
:100C700069462046FFF714BF30B585B00446102200
:100C8000002101A800F046F821681D48814233D1B7
:100C90001C481D4D016841F4007101600323026886
:100CA00002F4007200920099026842F004020260AD
:100CB0000722006800F0040000900099019202935E
:100CC00001A9124800F09AF81148286000218020FC
:100CD000E86069604FF4806000224FF480716861C1
:100CE000AA602961AA61EA612846FFF711FD08B1EF
:100CF00000F06BF825626C6205B030BD5400002036
:100D0000002401401810024010000020000801409B
:100D10000800024010B5044610460A460146204627
:100D200000F054F9204610BD80B500F083F900F0C2
:100D300007F800F091F900F0A7F9FFF765FFFEE76B
:100D400000B595B02822002105A8FFF7E3FF142283
:100D500000216846FFF7DEFF182200210FA8FFF7E9
:100D6000D9FF002207924FF4A021022206910C9293
:100D70000120059009904FF480314FF4E0120D915D
:100D80000E9205A8FFF7D4F908B100F01EF8022171
:100D900001910F204FF48061009000220391029294
:100DA000049202216846FFF74DFB08B172B6FEE7D8
:100DB00002214FF400420F9111920FA800F07CF92C
:100DC00008B172B6FEE715B000BD72B6FEE730B4EA
:100DD0000EE00268436802440830DC0744BFA9F112
:100DE0000104E31852F8045B43F8045B091FF9D1CE
:100DF00050F8041B0029ECD130BC70472DE9F847AE
:100E00004FF0000E0024624A624BDFF88C814FF0F5
:100E10000F0982460CE017683840106006E0556004
:100E20004D68ED03F7D51068074317600EF1010E0A
:100E30000F6837FA0EF000F0A980012000FA0EF6D4
:100E40003740B742F2D1486838B301281AD0022897
:100E50001DD003282ED0112816D012281AD04F4D9D
:100E6000A8421CBF4E4DA84217D04E4DA8421CBFF1
:100E70004D4DA84211D04D4DA8421CBF4C4DA8422B
:100E80000BD018E0CC6816E0CC68241D13E0CC68C9
:100E9000083410E0CC680C340DE0886808B90424EC
:100EA00009E0012819BF0824CAF814600824CAF808
:100EB000106000E00024B7F5807F03D250464FEA6F
:100EC0008E0C05E0AEF108050AF104004FEA850C2E
:100ED000056809FA0CF6B54304FA0CF635430560CB
:100EE0004868C000A2D5D8F8000040F00100C8F85A
:100EF0000000D8F8005005F0010500954FEA8E0576
:100F000000984FEA9E0053F8206005F00C0C09FA97
:100F10000CF526EA0505274EB24508BF002618D075
:100F2000254EB24508BF012613D0244EB24508BF56
:100F300002260ED0224EB24508BF032609D0214E0C
:100F4000B24508BF042604D01F4EB2450CBF05268B
:100F5000062606FA0CF6354343F82050F8434D6850
:100F6000ED0295684CBF3D43054095604D68AD026C
:100F7000D5684CBF3D430540D5604D685668AD030C
:100F80004CBF47EA060500EA060548E7BDE8F187D9
:100F90000004014008000140181002400000111038
:100FA000000012100000211000002210000031107B
:100FB0000000321000080140000C01400010014008
:100FC0000014014000180140001C014062F30F2290
:100FD00062F31F42401810F0030308D0C91A1FD350
:100FE000DB0748BF00F8012D28BF20F8022D1300B1
:100FF00030B414461546103928BF20E93C00FAD811
:10100000490728BF20E90C0048BF40F8042D89009B
:1010100028BF20F8022D48BF00F8012D30BC7047D2
:10102000C91818BF00F8012DCB0728BF00F8012D03
:101030007047000080B50748016841F01001016069
:101040000320FFF710FB0F20FFF7E0FA00F0A8F8ED
:10105000002002BD002002400A4881B0016841F032
:1010600010010160026802F010020092009902680B
:1010700042F004020260006800F004000090009852
:1010800001B070471810024080B50A48016841F06D
:10109000010101600022006800F0010000900021C1
:1010A00000980B20FFF7ECFABDE802400B20FFF799
:1010B00004BB00BF141002402DE9FC410646354D2B
:1010C0003078C10750D5A8690024C10009D4A869A7
:1010D00040F08050A8610124A86900F08050009081
:1010E00000982D4F3868C10511D4386840F48070DD
:1010F0003860FFF785FA80463868C10507D4FFF7E6
:101100007FFAA0EB08006528F6D303203FE0E869EA
:1011100010F440701EBF716801F44071884218D00D
:101120001E49E86901220A60002320F440700B6028
:10113000E861C0070DD5FFF763FA0746E869810744
:1011400007D4FFF75DFAC01B41F289318842F5D31D
:10115000DBE7EA69706822F440720243EA611CB17D
:10116000A86920F08050A8613078810705D52A68E9
:10117000B06822F4404202432A603178C80605D59F
:101180002968706921F48001014329600020BDE8CD
:10119000F68100000410024000700040400442420A
:1011A0000E4881B0016841F001010160026802F05F
:1011B000010200920099426842F080524260406809
:1011C00000F08050009000980548016821F0E0612F
:1011D00041F00071016001B0704700BF181002407B
:1011E0000400014010B5074979441831064C7C448D
:1011F000163404E00A68081D114488470146A142DC
:10120000F8D110BD0800000028000000BBF3FFFF6C
:10121000740000001000002000000000B3FBFFFF7E
:1012200010000000A80000000000002000000000E6
:10123000FEE7FEE7FEE7FEE7FEE770477047704710
:1012400000F006B80148FFF7A3BA00001000002024
:1012500002494A68087882184A60704700000020F6
:1012600000F00DF8002801D0FFF7BCFFAFF30080BD
:101270000020AFF30080FFF757FD00F002F80120D7
:10128000704700F001B800000746384600F002F849
:10129000FBE7000080B5AFF30080024A1100182080
:1012A000ABBEFBE726000200704700000000000014
:1012B00000000000010203040607080901488047F6
:1012C00001480047A9120008DD12000801000000D3
:1012D00000000000100000000024F400AFF30080C4
:1012E000AFF30080FFF7BCFFFFF7FEBFFFF7FEBFC5
:1012F000FFF7FEBFFFF7FEBFFFF7FEBFFFF7FEBF22
:10130000FFF7FEBFFFF7FEBFFFF7FEBFFFF7FEBF11
:10131000FFF7FEBFFFF7FEBFFFF7FEBFFFF7FEBF01
:10132000FFF7FEBFFFF7FEBFFFF7FEBFFFF7FEBFF1
:10133000FFF7FEBFFFF7FEBFFFF7FEBFFFF7FEBFE1
:10134000FFF7FEBFFFF7FEBFFFF7FEBFFFF7FEBFD1
:10135000FFF7FEBFFFF7FEBFFFF7FEBFFFF7FEBFC1
:10136000FFF7FEBFFFF7FEBFFFF7FEBFFFF7FEBFB1
:10137000FFF7FEBFFFF7FEBFFFF7FEBFFFF7FEBFA1
:10138000FFF7FEBFFFF7FEBFFFF7FEBFFFF7FEBF91
:10139000FFF7FEBFFFF7FEBFFFF7FEBFFFF7FEBF81
:1013A000FFF7FEBFFFF7FEBFFFF7FEBFFFF7FEBF71
:1013B000FFF7FEBFFFF7FEBFFFF7FEBFFFF7FEBF61
:1013C000FFF7FEBFFFF7FEBFFFF7FEBFFFF7FEBF51
:0413D000FFF7FEBF66
:04000005080012DD00
:00000001FF
