:020000040800F2
:1000000058510020DD010008074600082D40000877
:1000100005460008DD1000082D5C00080000000007
:100020000000000000000000000000004501000882
:10003000111900080000000089010008B5520008ED
:10004000F7010008F7010008F7010008F7010008B0
:10005000F7010008F7010008F7010008F7010008A0
:10006000F7010008F7010008F70100083D18000833
:10007000F7010008F7010008F7010008F701000880
:10008000F7010008F7010008B10B0008F7010008AC
:10009000F7010008F7010008F7010008F701000860
:1000A000F701000869530008F7010008F70100088C
:1000B000F7010008F701000875530008F701000870
:1000C000F7010008F7010008F7010008F701000830
:1000D000F7010008F7010008E95B0008F55B00087C
:1000E000F7010008F7010008F7010008F701000810
:1000F000F7010008F7010008F7010008F701000800
:10010000F7010008F7010008A1530008F7010008F3
:10011000F7010008F7010008F7010008F7010008DF
:10012000F7010008F7010008F7010008F7010008CF
:10013000DFF80CD000F0FEFC00480047A96F000873
:1001400058510020224B19680868B0E8F00F80F37E
:100150000988BFF36F8F4FF0000080F311884EF0D5
:100160000D0E70470000000006480068006880F32C
:10017000088862B661B6BFF34F8FBFF36F8F00DFA1
:1001800000BF00BF08ED00E0EFF30980BFF36F8F01
:100190000F4B1A6820E9F00F106008B54FF05000BF
:1001A00080F31188BFF34F8FBFF36F8F08F032F9E0
:1001B0004FF0000080F31188BDE808401968086816
:1001C000B0E8F00F80F30988BFF36F8F704700BF6E
:1001D000A0010020EFF3058070470000064880472B
:1001E00006480047FEE7FEE7FEE7FEE7FEE7FEE71C
:1001F000FEE7FEE7FEE7FEE767530008310100086F
:10020000202A04DB203A21FA02F00021704721FA6B
:1002100002F3D040C2F120029140084319467047D2
:1002200040EA01039B0703D009E008C9121F08C078
:10023000042AFAD203E011F8013B00F8013B521EF8
:10024000F9D27047D2B201E000F8012B491EFBD26F
:1002500070470022F6E710B513460A4604461946D1
:10026000FFF7F0FF204610BDF0B480EA0102D40F82
:100270004200B2EB410F02D20246084611464A0044
:1002800042D0C30DDDB2C1F3C752AD1A202D35DA0D
:10029000C1F3160141F4000204B15242C5F1200637
:1002A00002FA06F12A411044B3EBD05F23D0C4B167
:1002B000012DA0EBC35009DCF0BC4FF0004202EA74
:1002C000C352DBB200F5000000F091BB400000F12A
:1002D000807000EBC350A0F1807040EAD1704900FB
:1002E00009E0490841EAC071A0EBC35000F50000E5
:1002F000400800EBC350F0BC00F070BB614201222B
:1003000002EB4101001BF6E7F0BC704781F00041B1
:10031000AAE780F00040A7E780EA010210B502F0EA
:100320000043400022D04A001FD0010E01EB1261B1
:10033000C0F35600C2F3560240F4000042F400023B
:10034000A0FB022000047F39140400D0401C50EAB6
:10035000124001D44000491EC2B20C0604EBD0107A
:10036000401C4008802A02D003E0002010BD20F08D
:100370000100002900DA0020184310BD30B480EAE3
:10038000010202F0004530F0004221F0004013D09D
:1003900090B1C30DD40DC2F31601C0F31600E41AD8
:1003A00041F4000140F400027D34914201D3641C09
:1003B00000E04900002C02DA30BC002070474FF406
:1003C00000000023914201D3891A034340084FEAF9
:1003D0004101F7D151B1914202D14FF0004105E006
:1003E00002D24FF0010101E06FF0010103EBC450B4
:1003F000284430BC00F0F2BA2DE9FE4F804681EA75
:100400000300C00F0C46009021F0004123F000458E
:10041000B8EB0200A94105D24046214690461C4651
:100420000B46024623F00040104347D0270DC7F388
:100430000A00C3F30A510290401A019040286BDA77
:10044000C3F3130040F4801B0098924620B10023B0
:10045000D2EB030A63EB0B0B01985946C0F1400243
:10046000504600F09AFA06460D4650465946019A03
:1004700000F0A2FA10EB08006141002487EA115253
:1004800084EAE7731A4340D0009A62B3019A012AC2
:100490004FEA075215DC001B61EB02014FF00042EE
:1004A00002EA0752CDE90042001C41F580113246B4
:1004B0002B4600F0D9FA03B0BDE8F08F4046214644
:1004C000F9E7001B61EB0201001C41F580130018E5
:1004D0005B412018A2F5001747EB030140EAD570F5
:1004E000B6196D4111E06D084FEA360645EAC07550
:1004F0004FEA0752001B61EB0201001C41F580111D
:1005000049084FEA30000019514132462B4603B0EA
:10051000BDE8F04F00F099BA009801224000002396
:10052000D0EB020263EBE073009821464FEAE074DF
:10053000B8EB000061EB0401E9E783F000435BE7FF
:1005400081F0004158E72DE9FE4F81EA030404F0F1
:10055000004421F0004100944FF0000B23F00043D1
:1005600050EA01045ED052EA03045BD0C3F30A549C
:10057000C1F30A552C44A4F2F3340194A0FB0254B5
:10058000C1F3130141F48011C3F3130343F4801347
:1005900001FB024400FB034E840A970A44EA81549B
:1005A00047EA8357A4FB076802958D0A05FB078578
:1005B0004FEA932C04FB0C542705029D4FEA065882
:1005C00047EA1637B5EB08056EEB070C870E920E5F
:1005D00047EA811742EA8312A7FB0201B6EB0B013F
:1005E00064EB00042B0D43EA0C335E1844EB1C5003
:1005F000DA465146E7FB0201C5F313044FEA0B3319
:1006000043EA14534FEA0432019C43EA0603A4F17F
:100610000C040294009CCDE900B400F025FA03B06C
:10062000BDE8F08F00200146F9E72DE9F04D81EAA1
:10063000030404F0004B21F0004514464FF0000A7B
:1006400023F0004150EA050220D054EA01021DD0F7
:10065000C5F30A570246C5F31303C1F31300C1F3F0
:100660000A5640F4801543F48013A7EB0608101BCC
:10067000D64608F2FD3873EB050002D308F10108F5
:1006800001E092185B41B8F1000F03DA0020014647
:10069000BDE8F08D00204FF48011064684460EE040
:1006A000171B73EB050705D3121B63EB050306430A
:1006B0004CEA010C49084FEA300092185B4150EABD
:1006C0000107EDD152EA030012D082EA040083EA66
:1006D0000501084305D0101BAB4106D201220023BF
:1006E00006E000224FF0004302E06FF001025310D9
:1006F0001AEB06004CEB085110EB0A0041EB0B0122
:10070000BDE8F04D00F0A1B970B521F000430343FE
:100710000CD0C1F30A550024D5EB040564EB0403A7
:10072000D617AD1AB34102DB0020014670BD201878
:1007300041EB025170BDC10F80EAE0700844CA0766
:100740009623002100F053B996230022114600F0B1
:100750004EB90EB5C10F80EAE0700844CA07002107
:1007600040F233438DE80E000A460B4600F07CF958
:1007700003B000BD0EB540F2334102910021CDE936
:1007800000110A460B4600F06FF903B000BD00F0FF
:10079000004220F00040C10DC0F3160040F40000FC
:1007A0007F2901DA00207047962903DCC1F1960108
:1007B000C84001E096398840002AF4D04042704792
:1007C00020F00040C10DC0F3160040F400007F2966
:1007D00001DA00207047962903DCC1F19601C84078
:1007E000704796398840704770B5C1F30A5201F0DE
:1007F00000450024C1F3130140F2FF3341F480119E
:100800009A4201DA002070BD40F233439A42A2F2CC
:10081000334203DC5242FFF7F3FC00E090402C43EC
:10082000F1D0404270BD00F0004230F000400AD0EC
:10083000C10D01F56071C0F3160042EA0151C20812
:1008400040071143704700200146704730B5041E31
:1008500071F1000404DB4FF00044404264EB0101FD
:10086000141E73F1000405DB1C464FF00043524296
:1008700063EB04038B4208BF824230BD30B5041ED7
:1008800071F1000404DB4FF00044404264EB0101CD
:10089000141E73F1000405DB1C464FF00043524266
:1008A00063EB0403994208BF904230BD01F000435E
:1008B00030B421F0004150EA010206D00A0DA2F541
:1008C0006072C1F31301002A02DC30BC00207047C3
:1008D000440F44EAC104C100E01830BC00EBC25030
:1008E00000F07CB8002801DBC0F10040002901DBEA
:1008F000C1F1004181427047002801DBC0F1004096
:10090000002901DBC1F100418842704730B50B4638
:10091000014600202022012409E021FA02F59D422F
:1009200005D303FA02F5491B04FA02F52844151E03
:10093000A2F10102F1DC30BD2DE9F05F0546002097
:1009400092469B4688460646814640241BE0284640
:10095000414647462246FFF753FC53465A46C01AC3
:10096000914110D311461846224600F016F82D1A70
:1009700067EB01084F4622460120002100F00DF8E8
:1009800017EB00094E41201EA4F10104DFDC4846AC
:1009900031462A464346BDE8F09F202A04DB203A30
:1009A00000FA02F1002070479140C2F1200320FAC2
:1009B00003F3194390407047202A06DBCB17203AF7
:1009C00041FA02F043EAE07306E041FA02F3D04054
:1009D000C2F1200291400843194670470029A8BF80
:1009E0007047401C490008BF20F00100704710B458
:1009F000B0FA80FC00FA0CF050EA010404BF10BC0D
:100A0000704749B1CCF1200421FA04F411FA0CF139
:100A100018BF012121430843A3EB0C01CB1D4FEA72
:100A200000614FEA102042BF002010BC704700EB6D
:100A3000C35010440029A4BF10BC7047401C49009B
:100A400008BF20F0010010BC704710B5141E73F1F0
:100A5000000408DA401C41F1000192185B411A437E
:100A600001D120F0010010BD2DE9F04D92469B46CA
:100A700011B1B1FA81F202E0B0FA80F22032904670
:100A8000FFF78BFF04460F4640EA0A0041EA0B01DC
:100A900053465A46084313D0114653EA010019D071
:100AA000C8F140025046FFF7ABFB05460E465046E4
:100AB00059464246FFF771FF084305D0012004E084
:100AC00020463946BDE8F08D0020054346EAE07631
:100AD0002C4337430A986305E40AA0EB0800002280
:100AE000FD0A44EA47540A3002D500200146E9E7EE
:100AF000010510196941DDE9084500196941BDE8A2
:100B0000F04DA2E7C1F30A52C1F3130140F2FF33E3
:100B100041F480119A4202DA00200146704740F207
:100B200033439A42A2F2334202DC5242FFF768BBDF
:100B3000FFF733BF064C074D06E0E06840F00103C5
:100B400094E8070098471034AC42F6D3FFF7F4FA64
:100B5000DCAB0008FCAB000870B58C1810F8015B2A
:100B600015F0070301D110F8013B2A1106D110F846
:100B7000012B03E010F8016B01F8016B5B1EF9D14A
:100B80002B0705D40023521E0DD401F8013BFAE7D0
:100B900010F8013BCB1A921C03E013F8015B01F83B
:100BA000015B521EF9D5A142D8D3002070BD0000D0
:100BB000014801F03AB800001C02002070B50C4654
:100BC0008869FFF7E4FD0D4D064629466069FFF789
:100BD000A3FB314600F04EFEFFF7ADFDA061606D56
:100BE000FFF7D5FD06462946206DFFF795FB3146F8
:100BF00000F040FEFFF79FFD606570BD00002041E2
:100C000010B50A4CE06907F09FF92060206A07F0F0
:100C10009BF96060606A07F097F9E060A06907F0EF
:100C200093F9A0602069401C206110BD00000020E5
:100C300070B5044600688168C943C90716D1816848
:100C400021F00101816001F029FD054609E001F074
:100C500025FD401B022804D920688068C043C007D6
:100C600006D020688068C043C007F0D0002070BD67
:100C7000A06A40F01000A062E06A40F00100E0626B
:100C8000012070BD10B50146406A826A12F0500F13
:100C900005D0006A026BBDE8104008461047816A23
:100CA00041F40071816201688968C1F342410729FA
:100CB0000CD1017B51B9816A21F480718162816A12
:100CC000C90403D4816A41F00101816200F0AAFFE6
:100CD00010BD10B5406A816A41F040018162C16A6D
:100CE00041F00401C16200F09FFF10BD10B5406AE1
:100CF00000F099FF10BD0000F8B5002604460096EC
:100D000000688168C943C9072CD0816841F001019E
:100D10008160154815490068B0FBF1F000E0401E05
:100D200000900028FBD101F0B9FC054615E001F068
:100D3000B5FC401B022810D920688068C043C0075A
:100D40000BD0A06A40F01000A062E06A40F0010001
:100D5000E06284F824600120F8BD20688068C04308
:100D6000C007E4D10020F8BD5000002040420F0031
:100D7000F0B52B4C002734F81120521C92B224F805
:100D800011200A2A01D924F811700588254801EBA1
:100D9000810200EB820334F81100224C23F810503A
:100DA0000A20503404EB820203E033F8104022F8AA
:100DB0001040401EC0B2F8D200230020C3F1090C3D
:100DC0000BE002EB400632F810507488A54202D9BD
:100DD00022F810407580401CC0B28445F1DC5B1CD9
:100DE000DBB2092BE9D30E4B0E4C08335089A034EB
:100DF00023F8110054F82120A3F11B05104444F8F6
:100E000021006A5C521CD2B26A54082A05D3C00879
:100E100023F811006F5444F8217033F81100F0BD2D
:100E200050010020300A0020254E8EB0002786F8A1
:100E3000317086F86D700C973022224968460D9704
:100E4000FFF7EEF90CA8019004220CA91E4801F04E
:100E500035F8DFF878806D4619491D4804F09CF993
:100E600017491B4800F036F8002404EB440005EB5A
:100E70008001D1E9010212499047641CE4B2042CBC
:100E8000F3D3D8F8042044460D490020904796F843
:100E90003100C00796F86C000BD020F0080086F8EF
:100EA0006C00E268064901209047C82006F0EEF980
:100EB000D2E740F0080086F86C00A6F84470F0E72E
:100EC000E00A0020049700081C02002068010020AE
:100ED000CC0500202DE9F84F044691F83100764DFD
:100EE0000E46C00778D096F86D00DFF8D091744FA9
:100EF000C007F7D0D6E90410FFF708FA8246D6E912
:100F00001310FFF703FA0090207FFFF733FCB84679
:100F10003A46CB464B46FFF716FB06460F46504671
:100F2000FFF781FC8A46814632463B46FFF7A6FC26
:100F300003D8688C40F0010035E0A07EFFF71AFC72
:100F4000464642465F4BFFF7FEFA02460B464846CE
:100F50005146FFF77BFC03D8688C40F0040022E088
:100F6000207FFFF707FC3246574BFFF7ECFA0246AB
:100F70000B4648465146FFF769FC03D8688C20F0C1
:100F8000010010E0A07EFFF7F5FB32464F4BFFF764
:100F9000DAFA02460B4648465146FFF757FC03D89B
:100FA000688C20F00400688494F82200FFF7E2FBCC
:100FB00042465B46FFF7C7FA06460F460098FFF722
:100FC00032FC8A46814632463B46FFF757FC04D83E
:100FD000688C40F0020026E062E094F82000FFF701
:100FE000C9FB47464246374BFFF7ADFA02460B4670
:100FF00048465146FFF72AFC03D8688C40F00800A9
:1010000011E094F82200FFF7B5FB3A462E4BFFF7AC
:101010009AFA02460B4648465146FFF717FC04D899
:10102000688C20F0020068840DE094F82000FFF73F
:10103000A1FB3A46254BFFF786FA02460B46484687
:101040005146FFF703FC224C4FF48061204601F02B
:101050001BFB0128688C27D020F0100068848021B9
:10106000204601F011FB06461021204601F00CFB42
:1010700046EA4000C1B2174801290171164816D04E
:101080000122012101F005FB8021204601F0FCFA3C
:101090000028688C0DD020F020006884BDE8F88F0F
:1010A000688C20F00F00BEE740F01000D6E7002269
:1010B000E7E740F02000F0E7980800209999B93F51
:1010C0009A9999999999B9BF9999A93F9999A9BF5D
:1010D000001401403801002000180140FEE7000024
:1010E000074C084D05F01EFA0548103800F00CF8C2
:1010F0002146284600F00EFC0A2006F0C7F8F1E76A
:10110000F00A0020060700202DE9F05F654E044636
:10111000654FF088DFF89491654D4FF0000A012883
:101120000ED000224021634801F0B3FAA5F894A044
:10113000A6F802A085F86DA0C5F88CA0BDE8F09FC8
:10114000B046B6F84A00FFF715FBBB463A464B4699
:10115000FFF7F9F906460F462069FFF764FB3246B0
:101160003B46FFF773FB01D8012700E00027464606
:10117000B8F84E00FFF7FEFA5A464C4BFFF7E3F97A
:1011800080468946E06CFFF74EFB42464B46FFF730
:101190005DFB01D8012000E00020074395F89A008C
:1011A00008D040F0200085F89A00B6F8480040F0DA
:1011B000200007E020F0200085F89A00B6F84800EB
:1011C00020F02000A6F84800B6F94C00FFF7C1FA5D
:1011D000DFF8D8905A464B46FFF7B5F907468846E0
:1011E0006069FFF720FB3A464346FFF747FB0BD801
:1011F00095F89A0020F0200085F89A00B6F848008B
:1012000020F02000A6F84800B6F85000FFF7B2FA28
:101210005A464B46FFF797F9074688462069FFF77D
:1012200002FB3A464346FFF729FB14D2D4E90410E7
:10123000FFF762FB03D294F89C00C10712D095F827
:101240009A0020F0200085F89A00B6F8480020F0B7
:101250002000A6F8480095F89A00800611D4A5F859
:1012600094A06BE740F0010084F89C0095F89A0088
:1012700040F0200085F89A00B6F8480040F02000C1
:10128000E7E7B5F89400B6F852108842E9D9012290
:101290004021084801F0FDF94FF4FA60A5F89400E8
:1012A0004CE70000CC0500209A9999999999B93F8B
:1012B000E00A00200018014070B5044690F83000A4
:1012C0000E46010701D4C00603D560692062E061C3
:1012D00070BD30784FF00005000712D52169A06974
:1012E000FFF700FB05D894F8300020F0200084F8C8
:1012F000300094F83000410603D4658620F00200E7
:101300000AE0608EB0F5967F08D94FF49B70608636
:1013100094F8300040F0020084F8300094F8300077
:10132000010701D441060CD4A16B0020884794F832
:101330003000A562658620F0030084F83000E56087
:10134000C3E794F82F10B4F90020914226DB84F80B
:101350002F50A5863146204603F056F91B49A06A56
:10136000884202DA1A49884207D3658694F8300029
:1013700020F0020084F83000A562208921884843CB
:1013800001B294F82E004843FFF7E3F9114A124BDB
:10139000FFF7D9F8FFF728FA208170BD400707D57D
:1013A0000020A16B30348847207820F001000BE04A
:1013B000A08EB4F908108842F2DA0120A16B303413
:1013C0008847207840F00100207070BD0000A040E8
:1013D0000000A0C07B14AE47E17A843F0200C2EB5C
:1013E000021001EB800004D0034A82639A31FFF7B8
:1013F00063BF024A8A63F9E7494000086959000857
:101400002DE9F04F87B0054600200C460090019072
:1014100001462846FFF7ACFCADF800000121A81CEE
:10142000FFF7A6FCADF802000221281DFFF7A0FC83
:10143000ADF804000321A81DFFF79AFCADF80600E3
:10144000BDF90000FFF785F9EB4AEC4BFFF77BF89D
:10145000EB4AEC4BFEF7D0FFFFF728FA8146BDF9C7
:101460000200FFF776F9E44AE44BFFF76CF8E44A30
:10147000E44BFEF7C1FFFFF719FADFF88CA30290E7
:10148000BAF91200FFF765F9E04AE14BFFF75BF8A4
:10149000074650468846B0F91400FFF75AF9DFF8BE
:1014A00074B3DD4B5A46FFF74EF80022DB4BFEF7D4
:1014B000A3FF05460E464846FFF7B5F92A463346D0
:1014C000FFF741F83A464346FEF796FFFFF7EEF97D
:1014D0000AF188010490D24B04AAA1F1180004F08B
:1014E0004BF95046B0F95A00FFF733F9C74AC84BD9
:1014F000FFF729F8074650468846B0F95C00FFF729
:1015000028F95A46C44BFFF71EF80022C34BFEF7DA
:1015100073FF05460E460298FFF785F92A463346C3
:10152000FFF711F83A464346FEF766FFFFF7BEF9AC
:10153000BB4B0AF1E80102905B1C02AAA1F1180062
:1015400004F01AF9DFF8D8B20BF1280BDBF8000031
:10155000FFF769F90646606A0F461434FFF763F92E
:10156000AA4AAB4BFEF7EFFF054632463B460091D9
:10157000FEF7E9FF8046894628460022A74B0099DE
:10158000FEF7DEFF06460F4606910498FFF74BF97B
:101590003B463246FEF7D7FF42464B46FEF72CFF4E
:1015A000FFF784F92060E06EFFF73DF902460B4635
:1015B00028460099FEF7C7FF05460F46DDF818805C
:1015C0000298FFF730F943463246FEF7BCFF2A4641
:1015D0003B46FEF711FFFFF769F9A066BAF946002E
:1015E000BAF944600AF11605801BFFF7A4F801461A
:1015F0008C48FEF7C3FE82463046FFF7AAF88A4AB7
:101600008A4BFEF7A0FF064606910F46BDF904007F
:10161000FFF79FF84FF06632854BFEF794FF6FF0AF
:101620000B02FFF771F84FF03332824BFEF7FDFFEC
:101630003B463246FEF781FF804689465046FFF71B
:10164000F2F8074642464B460091FEF77CFFFFF753
:101650002DF906998246B0460E46BDF90600FFF701
:1016600078F84FF06632724BFEF76DFF6FF00B02A9
:10167000FFF74AF84FF033326E4BFEF7D6FF424683
:101680003346FEF75AFF02460B4638460099FEF7EE
:101690005AFFFFF70BF90390B5F90000FFF759F86F
:1016A000614A624BFEF74FFF07468946B5F90200D3
:1016B000FFF74FF8574A584BFEF745FF0022574BAC
:1016C000FEF79AFE064688465046FFF7ACF83246CB
:1016D0004346FEF738FF4B463A46FEF78DFEFFF7CE
:1016E000E5F849490590B831ABF1260305AAA1F107
:1016F000180004F041F8B5F94800FFF72AF84A4A03
:101700004A4BFEF720FF06468846B5F94A00FFF728
:1017100020F8404A404BFEF716FF00223F4BFEF7F1
:101720006BFE05460F460398FFF77DF82A463B46B9
:10173000FEF709FF43463246FEF75EFEFFF7B6F8B6
:101740003D490390ABF1250303AAA1F1180004F071
:1017500013F85D46DBF80400FFF765F80746884696
:10176000E06CFFF760F8294A294BFEF7ECFE8B4648
:1017700006463A464346FEF7E6FE81468A4630462E
:1017800059460022254BFEF7DBFE074600918846AE
:101790000598FFF748F843463A46FEF7D4FE4A4616
:1017A0005346FEF729FEFFF781F88046E063606F3D
:1017B000FFF739F832465B46FEF7C5FE8A460099C8
:1017C00081463E460F460398FFF72DF832463B46CA
:1017D000FEF7B9FE4A465346FEF70EFEFFF766F8DF
:1017E000014620672068C5E90008A06E6167E066D1
:1017F00007B0BDE8F08F00005839B4C876BEAF3FDF
:10180000280F0BB5A679F93FCC0500207B14AE4715
:10181000E17A843F2D431CEBE2361A3F0000F03F93
:101820003801002000007A449A9999999999B93F12
:1018300066660A403333E33FE4060020014800F0C7
:101840007FBC00004C02002030B590F840500124CD
:10185000AC40C56B6C60046863604368102B036820
:1018600003D099600068C26030BD9A600068C160B2
:1018700030BD00002DE9F0410C460646FEF787FF1B
:101880002149054616F1FF4F8846304619D3FEF729
:101890003DFDFEF77CFF07461C48864206D34146C5
:1018A0003046FEF7E1FCFEF772FF00E00120AF4298
:1018B0001ADBA8421EDCAC421CDC681E84421EDB24
:1018C0001EE0FEF7D1FCFEF762FF074640464645A4
:1018D00006DB01463046FEF719FDFEF758FF01E032
:1018E0004FF0FF30AF4201DD3C4609E0A84201DB8A
:1018F000AC4201DA2C4603E0681C844200DD044659
:101900002046BDE8F0810000CDCC4C3ECDCC4CBE95
:101910007047000070B504460D46B0F90000FEF7B0
:101920000AFF2968FEF7E8FF01D2002028E034F919
:10193000060FFEF700FF2968FEF7DEFF01D2012047
:101940001EE034F9060FFEF7F6FE2968FEF7D4FF15
:1019500001D2022014E034F9060FFEF7ECFE2968EC
:10196000FEF7CAFF01D203200AE034F9060FFEF7A2
:10197000E2FE2968FEF7C0FF01D2042000E0052046
:10198000184A0021184B5578A84203D0A3F89610A6
:10199000A3F8981050701078144D10B101281FD181
:1019A00010E0A088B3F8966000EBC00404EB0010D0
:1019B000B6EB800F01D801220AE0A3F898100120AD
:1019C000107070BDB3F898006488A04206D8002259
:1019D0002846BDE87040082100F05BBEA3F89610D1
:1019E000117070BD98010020E00A0020001801402D
:1019F00072B6FEE790F89A1089071BD4114A124B71
:101A0000118AC3F8901090F86D10C90713D090F8A0
:101A10003110C9070FD0D0F8901000290AD0D0F8A3
:101A20008C30C1EB0111B3EB810F03D30021C0F85F
:101A30008C10D180704710F89B1F21F001010170BC
:101A400070470000CC050020E00A0020F8B5002611
:101A50000446009690F8240001280BD0012084F859
:101A600024002046FFF7E4F82046FFF745F9070079
:101A700002D050E00220F8BDA06A20F4885040F067
:101A80000200A062022000F0CDFE25490968B1FBEA
:101A9000F0F0400000E0401E00900028FBD12068DC
:101AA000816841F00801816000F0F8FD054608E01A
:101AB00000F0F4FD401B0A2803D920688068000765
:101AC00015D4206880680007F2D42068816841F04E
:101AD0000401816000F0E2FD054612E000F0DEFD49
:101AE000401B0A280DD920688068400709D5A06AE4
:101AF00020F0020040F01000A06284F82460012071
:101B0000F8BD206880684007E8D4A06A20F0020091
:101B100040F00100A06284F824603846F8BD00005F
:101B20005000002070470000F8B50023009390F8A3
:101B300024201C46012A12D0012280F824204A6861
:101B40001F26072A0DD205686F6B521E02EB820218
:101B50009640B7430E68964037436F6319E0022002
:101B6000F8BD05680D2A0AD22F6BD21F02EB820244
:101B70009640B7430E68964037432F6309E0EF6AFB
:101B80000D3A02EB82029640B7430E689640374307
:101B9000EF620A68072605680A2A0AD3EF680A3A3C
:101BA00002EB42029640B7438E6896403743EF609F
:101BB00008E02F6902EB42029640B7438E689640D8
:101BC00037432F610A68102A01D0112A20D1124D03
:101BD0000268AA4217D195682D0219D4956845F478
:101BE000000595600968102912D10C490C4A096852
:101BF000B1FBF2F101EB8101490000E0491E0091C7
:101C00000029FBD104E0816A41F0200181620123B7
:101C100080F824401846F8BD002401405000002000
:101C200040420F0070477047704770B50446006827
:101C300006684568A90625D5B10723D5A16AC90656
:101C400003D4A16A41F40071A1628168C1F34241E9
:101C5000072910D1217B71B9416821F02001416031
:101C6000A06A20F48070A062A06AC00403D4A06AB5
:101C700040F00100A0622046FFF7D4FF21686FF01A
:101C80001200086028062ED570072CD5A06AC00661
:101C900003D4A06A40F40050A06220688168C1F3B8
:101CA0000231072909D04168490515D48168C1F37B
:101CB0004241072910D1217B71B9416821F080018F
:101CC0004160A06A20F48050A062A06AC00503D4DD
:101CD000A06A40F00100A0622046FFF723FF2168C0
:101CE0006FF00C00086068060CD5F0070AD0A06AF7
:101CF00040F48030A062204600F096F821686FF032
:101D00000100086070BD00002DE9F04104004FF0B3
:101D100000057FD0A06A002628B9E66284F8246016
:101D2000204600F083F82046FEF782FFA16AC9062C
:101D300000D420B1A06A40F01000A0626AE0A16A5D
:101D400021F4885141F00201A162334923688B429A
:101D5000E16904D1B1F5402F01D14FF40021277B77
:101D60004FF4807C41EA470261680A43A1686145FB
:101D700008D0012906D0002194F814E0BEF1010F2B
:101D800002D00AE06146F7E7C7B1A76A47F020072B
:101D9000A762E76A47F00107E7625F6827F46947CF
:101DA0000F435F6021688B681C4F3B4013438B607F
:101DB000A16861450BD0012909D00CE0DFF860E093
:101DC000A7690EEB47370F4347F40061E5E7218A27
:101DD0000D05A5F580152168CB6A23F470032B430C
:101DE000CB62216889680F4B1940914208D1E662A5
:101DF000A16A21F0020141F00101A162BDE8F08178
:101E0000A06A20F0020040F01000A062E06A40F0FA
:101E10000100E0620120F1E7003C0140FDF7E1FF35
:101E200000E0FFFFFE0E1FFF7047000070B586B098
:101E300000240646009401940294039400681A4911
:101E400088422ED11949886940F4007088618869F8
:101E500000F400700490886940F00400886188698B
:101E6000694600F0040004901720009003200190C0
:101E70000F4800F011FB104D0E48C5E9000480200A
:101E8000C5E9024040002861800068612020C5E962
:101E90000604284600F078FA08B1FFF7A9FD35627C
:101EA0006E6206B070BD00000024014000100240C8
:101EB00000080140080002404C0200202DE9F047D4
:101EC000894604463B4900683B4F0E1D90468842B8
:101ED00001D0B84207D1306810F4702F03D001252B
:101EE0002846BDE8F08794F8240001280CD0012092
:101EF00084F824002046FEF7FFFE05004FF00001A5
:101F000004D084F82410EBE70220EAE7A06A40F648
:101F10000162904340F48070A0622068B84218D1FA
:101F2000326812F4702F14D0A06A40F48010A062BE
:101F30003068400505D5A06A20F4005040F4805078
:101F4000A062A06AC0040AD5E06A20F00600E06240
:101F500006E0A26A22F48012A2624068E9E7E16228
:101F600084F82410216A15488862216A1448C862DE
:101F7000216A1448086321686FF002000860206835
:101F8000816841F480718160216843464A464C3142
:101F9000206A00F037FA20688168C1F342410729BE
:101FA000816803D041F48011816099E741F4A00178
:101FB000FAE700000024014000280140850C0008D9
:101FC000ED0C0008D30C000810B590F82110002289
:101FD000022905D00421816380F82020012010BD52
:101FE00001680B6823F00E030B6001680B6823F097
:101FF00001030B6090F84030012404FA03F1C36B35
:10200000596080F8214080F82020104610BD000063
:102010002DE9F05F90F821100024022903D004215B
:102020008163012485E001680A6822F00E020A60DB
:1020300001680A6822F001020A603F4E3E4FB21565
:10204000DFF8F4C0DFF8F090DFF8ECA0DFF8E8B0DC
:10205000DFF8E4E00168783F13011502ACF1640C8D
:10206000A9F15009AAF13C0AABF1280BAEF1140E0C
:102070004FF48018B14227D9B9420ED0614512D031
:1020800049451DD0514518D0594518D0714501D149
:10209000424615E0294EB14201D1012210E0274EFF
:1020A0001436B14201D110220AE0244E2836B14242
:1020B00006D0224A3C32914201D11A4600E02A461B
:1020C0001E49091F0A602BE0B94213D0614517D0A1
:1020D000494522D051451DD059451DD0714501D1EA
:1020E00042461AE0B14202D14FF0807215E0134E21
:1020F000B14201D1012210E0104E1436B14201D19B
:1021000010220AE00D4E2836B14206D00B4A3C326E
:10211000914201D11A4600E02A46074980394A60B7
:10212000012180F82110002180F82010416B01B1BD
:1021300088472046BDE8F09F800002400804024026
:102140002DE9F05FC16B0B6801680A68046C4FF001
:10215000040808FA04F8844D844E854FDFF814C251
:10216000DFF81492DFF814A2DFF814B2DFF814E2FB
:1021700018EA030F65D05FEA427862D50A689206D2
:1021800003D40A6822F004020A60DFF8F0814FF4F9
:102190008062016808F1140813011402414524D932
:1021A000A9420DD0B1420FD0B9421AD0614515D025
:1021B000494515D0514501D1120312E0594501D1CD
:1021C00004220EE0714501D140220AE06D4D143524
:1021D000A94206D06B4A2832914201D11A4600E04A
:1021E00022466749091F0A6029E0A94213D0B1427B
:1021F00015D0B94220D061451BD049451BD051456F
:1022000002D14FF4800217E0414502D14FF08062C5
:1022100012E0594501D104220EE0714501D140225E
:102220000AE0584D1435A94206D0564A2832914248
:1022300001D11A4600E022464B4908394A60C16A7A
:1022400071E04FF0020808FA04F818EA030F70D0A2
:102250005FEA82786DD50A68920606D40A6822F091
:102260000A020A60012180F82110DFF810814FF482
:102270000072016808F1140813011402414524D9C1
:10228000A9420DD0B1420FD0B9421AD0614515D044
:10229000494515D0514501D1120312E0594501D1EC
:1022A00002220EE0714501D120220AE0354D14359D
:1022B000A94206D0334A2832914201D11A4600E0A1
:1022C00022462F49091F0A6029E0A94213D0B142D2
:1022D00015D0B94220D061451BD049451BD051458E
:1022E00002D14FF4001217E0414502D14FF00072C5
:1022F00012E0594501D102220EE0714501D12022A0
:102300000AE0204D1435A94206D01E4A28329142D7
:1023100001D11A4600E02246134908394A600021DB
:1023200080F82010816A00291CD0BDE8F05F0847C2
:10233000FFE70825A5401D4214D0120712D50A68F0
:1023400022F00E020A6090F84020C36B012101FACE
:1023500002F25A60816380F82110002180F8201079
:10236000016BE0E7BDE8F09F080002401C0002405E
:102370003000024044000240580002406C0002401D
:10238000080402401C04024030B560B11A4B0168D9
:102390001422994209D2194B0B44B3FBF2F292007A
:1023A0000264174A0AE0012030BD134B5B420B4424
:1023B000B3FBF2F2920002640F4A083AC2630222AF
:1023C00080F821200A6843F6F0739A43F0E901345B
:1023D0002343D0E902452C43234304692343446942
:1023E00023438469234313430B600021416301228B
:1023F00042770177084630BD08040240F8FFFDBF70
:102400000000024070B5044690F820000025012825
:102410000CD0012084F8200094F821600020012EC7
:1024200006D084F820000225284670BD022070BD29
:10243000022684F82160A0632068066826F0010661
:1024400006602046FFF700FAE06A0028206801686D
:1024500002D041F00E0106E021F004010160206885
:10246000016841F00A0101602068016841F0010142
:102470000160D9E770B5044600F010F90546601C0C
:1024800002D004480078044400F008F9401BA04240
:10249000FAD370BD440000202DE9F84FDFF8C09159
:1024A0000024A9F1040B23464FF00F0809F1040A98
:1024B000ABF1040ECCE00127A7403A40BA4272D1FA
:1024C000DFF8A0C14D68A5EB0C0665452BD00DDCEF
:1024D000032D34D005DC35B3012D19D0022D2FD1B9
:1024E0001BE0112D16D0122D2AD119E0B6F5881F48
:1024F00019D006DCB6F5803F15D0B6F5801F1FD188
:1025000011E0B6F5001F0ED0B6F5041F18D10AE091
:10251000CB6815E0CB681B1D12E0CB6808330FE0D9
:10252000CB680C330CE08B682BB1012B4FF0080308
:1025300003D0476104E0042302E0076100E00023C8
:10254000FF2A01D8064601E000F104064FEA84059F
:1025500001D9A5F12005376808FA05FC27EA0C0720
:1025600003FA05F547EA050737604D68ED006ED5BB
:102570003D4DAE6946F00106AE61AD6924F003063B
:1025800005F001050095394D7719BE68A5072D0F97
:1025900008FA05FC26EA0C06DFF8D4C0604503D132
:1025A0004FF0000C25E052E0DFF8C8C0604502D1D2
:1025B0004FF0010C1DE0DFF8C0C0604502D14FF0C4
:1025C000020C16E0DFF8B4C0604502D14FF0030CF6
:1025D0000FE0DFF8ACC0604502D14FF0040C08E01A
:1025E000DFF8A0C0604502D14FF0050C01E04FF0CC
:1025F000060C0CFA05FC4CEA060CC7F808C04D683E
:10260000D9F80060ED024D4601D5164300E096432F
:102610002E604D68DAF80060AD02554601D51643CC
:1026200000E096432E604D68DBF80060AD035D4628
:1026300001D5164300E096432E604D68DEF8006039
:10264000ED03754601D5164300E096432E60641CE9
:102650000A6832FA04F57FF42EAFBDE8F88F000067
:102660000804014000001110001002400000014069
:1026700000080140000C014000100140001401401E
:1026800000180140001C01408068084000D0012073
:1026900070470AB1016170470904FBE7014880688F
:1026A000704700004400002002488168027811440D
:1026B0008160704744000020074810B5016841F070
:1026C00010010160032000F095F80F2000F006F8DB
:1026D00000F03EF8002010BD0020024000B5014689
:1026E00087B00022192000F065F8192000F054F896
:1026F0001348816941F400618161806905A900F492
:1027000000600690684600F0F9F900F027FA0D49DC
:102710000D4AB0FBF1F10D48491E0260416040F2E4
:10272000E7320021C0E90321816000F06FFF10B1A2
:10273000012007B000BD054800F0E4FFF9E7000004
:102740000010024040420F00002C014064040020B1
:102750000F4808B5816941F001018161816901F08B
:1027600001010091C16941F08051C161C06900223D
:1027700000F0805000900F21901E00F01BF80549DA
:10278000486820F0E06040F00070486008BD00003C
:102790000010024000000140002809DB00F01F0289
:1027A000012191404009800000F1E020C0F80011B3
:1027B00070470000F0B40E4B1B68C3F30223C3F153
:1027C0000704042C00D904241D1D072D01D2002369
:1027D00000E0DB1E012606FA04F56D1E0D409D404B
:1027E0009E40761E164045EA0601F0BC03F030BA62
:1027F0000CED00E0064A00F0070110684FF6FF03F9
:10280000184040EA01200349084310607047000067
:102810000CED00E00000FA05014901200862704754
:1028200000000E4210B501460020284C04292FD08C
:102830000BDC012930D0022929D100F08FF9616821
:10284000C1F38131491C49001FE0082920D010291B
:102850001DD161682268D20119D51D48C1F3834298
:10286000C903805C0AD56168194AC1F34041921ED0
:10287000515C184AB2FBF1F1484301E01649484364
:102880006168490203D440000321B0FBF1F010BDA0
:10289000BDE8104000F072B9216AC1F30122012A9B
:1028A00003D1890701D5D00310BD022A05D1616A81
:1028B000890702D549F6404010BD032AFCD12168A2
:1028C0008903F9D54FF2244010BD000000100240EA
:1028D000DC94000800127A0000093D002DE9F8435D
:1028E00004460078344FC00752D0F8690025C00074
:1028F00008D4F86940F08050F861F869012500F0CB
:10290000805000902D480168C90511D401688046A7
:1029100041F480710160FFF7C1FE064604E0FFF755
:10292000BDFE801B642822D8D8F80000C005F6D56B
:10293000386A10F4407020D0A18801F440718142BF
:102940001BD0386A1E49012220F440700A60002220
:102950000A603862C00710D0FFF7A0FE064641F2B9
:10296000883807E0FFF79AFE811B414502D9032012
:10297000BDE8F883386A8007F4D5386A616820F4C6
:102980004070084338621DB1F86920F08050F8614A
:102990002078800705D57868A16820F44040084376
:1029A00078602078C00605D57868616920F48000D9
:1029B000084378600020DBE7001002400070004010
:1029C000400442422DE9F0470D46040067D0DFF88D
:1029D0001881D8F8000000F00700A8420CD2D8F8FF
:1029E000001021F007012943C8F80010D8F80000B2
:1029F00000F00700A84252D120683C4E810712D552
:102A0000400703D5706840F4E060706020780007EC
:102A100003D5706840F4605070607068A16820F061
:102A2000F000084370602078C00727D06068012854
:102A300010D03168022810D0890700292FDA716878
:102A400021F0030101437160FFF728FE074641F2C0
:102A500088390CE031688903EFE78901EDE7FFF77A
:102A60001DFEC11B494502D90320BDE8F0877068EF
:102A7000616800F00C00B0EB810FF0D1D8F80010C5
:102A8000404601F00701A9420BD9016821F0070176
:102A900029430160006800F00700A84201D001202E
:102AA000E3E72078400705D57068E16820F4E0602E
:102AB000084370602078000706D57068216920F40B
:102AC000605040EAC100706000F058F87168084A30
:102AD000C1F30311515CC84006490860064800680C
:102AE000FFF7FCFD0020C0E700200240001002407C
:102AF000EC94000850000020480000200F220260E3
:102B00000C4A536803F003034360536803F0F00377
:102B10008360536803F4E063C36052684FF4E0637A
:102B200003EAD20202610448006800F0070008606E
:102B30007047000000100240002002400448054990
:102B400000684968044AC1F30221515CC8407047DB
:102B50005000002000100240FC9400080448054981
:102B600000684968044AC1F3C221515CC8407047FB
:102B70005000002000100240FC9400080E4B5968E1
:102B80000E4801F00C02042A11D0082A0FD10C487B
:102B9000C1F38342C903805C0AD55968084AC1F36E
:102BA0004041921E515C054A5043B0FBF1F0704722
:102BB00004494843704700000010024000127A00A8
:102BC000CA94000800093D002DE9F84F04006FD0B9
:102BD0002078BE4DC00747D06868C0F38100012847
:102BE00007D06868C0F38100022809D16868C00373
:102BF00006D52868800337D560680028E7D033E021
:102C00006068B0F5803F0BD010B1B0F5A02F11D0A7
:102C1000286820F480302860286820F4802002E0B2
:102C2000286840F480302860606888B1FFF736FD7E
:102C3000064609E0286840F480202860F0E7FFF7A6
:102C40002DFD801B642873D828688003F7D50BE01E
:102C5000FFF724FD064604E0FFF720FD801B6428F3
:102C6000F1D828688003F7D42078DFF864828007E1
:102C70004FF0010A4FF0000939D5686810F00C0FC9
:102C800007D06868C0F38100022809D16868C003D2
:102C900006D42868800714D52069012808D110E0DF
:102CA0002069B0B1C8F800A0FFF7F8FC064605E0BF
:102CB00007E1FFF7F3FC801B0228C4D828688007CF
:102CC000F7D52868616920F0F80040EAC100286063
:102CD0000DE0C8F80090FFF7E1FC064604E0FFF7BE
:102CE000DDFC801B022823D828688007F7D42078D1
:102CF00000072CD57748A169D9B1C0F800A0FFF72B
:102D0000CDFC064604E0FFF7C9FC801B02280FD863
:102D1000686A8007F7D570484FF4FA510068B0FB35
:102D2000F1F0009000BF0098411E0091FAD20EE031
:102D30007CE0C0F80090FFF7B1FC064604E0FFF726
:102D4000ADFC801B022871D8686A8007F7D4207810
:102D500040075BD5E8690027C00008D4E86940F067
:102D60008050E861E869012700F0805000905B48DE
:102D70000168C90511D40168834641F4807101607E
:102D8000FFF78CFC064604E0FFF788FC801B6428F4
:102D90004CD8DBF80000C005F6D5E06801280AD061
:102DA00008B1052813D0286A20F001002862286A9B
:102DB00020F0040002E0286A40F001002862E06888
:102DC00041F2883B88B1FFF769FC064609E0286AB2
:102DD00040F004002862EEE7FFF760FC811B5945D4
:102DE0005BD8286A8007F7D50BE0FFF757FC06464B
:102DF00004E0FFF753FC811B59454ED8286A800731
:102E0000F7D41FB1E86920F08050E861E069A8B309
:102E10006968C1F38101022946D00228484606D0DC
:102E2000C8F86000FFF73AFC044639E035E0474651
:102E3000C8F86000FFF732FC064604E0FFF72EFCFE
:102E4000801B022829D828688001F7D4206AB0F5B1
:102E5000803F05D16868A16820F4003008436860AD
:102E6000D4E908010843696821F4741108436860D3
:102E7000C7F860A0FFF712FC044605E023E0FFF767
:102E80000DFC001B022808D828688001F7D51AE03D
:102E9000FFF704FC001B022802D90320BDE8F88FCD
:102EA00028688001F4D40EE00128F7D06868226A0F
:102EB00000F48031914204D1616A00F470108842BC
:102EC00001D00120EAE70020E8E7000000100240FE
:102ED0000000424280044242500000200070004046
:102EE000F8B505004FF0000016460C46009006D0DD
:102EF0002CB100226946284600F019F808B10120DB
:102F0000F8BD287B2070E87BE070697B6170A97B4D
:102F1000A17056B101F0BDFEE070607801F0B9FE1D
:102F20006070A07801F0B5FEA0700020F8BD2DE91A
:102F3000F04791460C465FEA00084AD084B3D8F8BF
:102F400000004068400744D4404601F03FFF4FF482
:102F50006162B0FBF2F10546B0FBF2F002FB1053E8
:102F60003C20B3FBF0F36370B5FBF2F302FB1352AA
:102F7000B2FBF0F300FB1320A070182931D3182006
:102F8000B1FBF0F6B1FBF0F200FB121020704046EE
:102F900001F015FF411C04D0A84202D9471B02E0F2
:102FA00017E04FF0FF37A6EB061000EB4000C0EB38
:102FB000001005EBC0152946404601F056FF40B908
:102FC000781C01D0791900E03946404601F039FFFC
:102FD00010B10120BDE8F0873146404601F064FEA3
:102FE00000E02170B9F1000F0BD0207801F051FE04
:102FF0002070607801F04DFE6070A07801F049FE0D
:10300000A0700020E6E7000070B5040003D0607CEB
:10301000002610B105E0012070BD2674204600F0A6
:103020003DF802206074204600F00CF9042550BBE6
:10303000204601F090FE30BB2068416821F0070176
:103040004160A06820B11448016821F001010160CD
:103050001148001F0168A26821F4607111430160EA
:103060006068411C04D10120FFF7DCFB58B1401E11
:103070002268C0F303419160216880B2C860204695
:1030800001F083FE08B16574C5E7E6730120607343
:10309000A0736074002070BD306C004008B50068FB
:1030A000084988420DD1FFF7B7FB0748C16941F0D5
:1030B0000061C161C069054900F000600090012015
:1030C000086008BD00280040001002403C04424255
:1030D0002DE9F0410D4604003BD0C5B3207C01280A
:1030E0003AD04FF0010884F8108002206074E8782C
:1030F00072B301F0C5FDE073687801F0C1FD607343
:10310000A87801F0BDFDA073C2B2617BE07B01F045
:103110006DFE20732870204601F058FE4FF4616167
:10312000B0FBF1F1002518292DD91822B1FBF2F1DD
:10313000A1EB011101EB4101C1EB011100EBC11643
:103140003146204601F091FE0427C8B90BE000E0AB
:1031500004E00120BDE8F0810220FBE7E07368781D
:103160006073A878CFE7204601F029FE411C0AD001
:10317000B04208D206490144204601F062FE10B177
:1031800067742574E5E784F8118025740020E1E771
:10319000805101002DE9F0410D46040024D01DB3FB
:1031A000207C012823D04FF0010884F810800220F1
:1031B0006074F2B1287801F063FD4FF4616100FBA7
:1031C00001F6687801F05CFDC0EB001006EB8006AC
:1031D000A87801F055FD35182946204601F045FE36
:1031E0000026042718BB10E00120BDE8F081022072
:1031F000FBE729784FF4616041436878C0EB001029
:1032000001EB8000A9784518E6E72068416821F0C5
:1032100005014160204601F0D2FD411C0AD0A842C0
:1032200008D207490144204601F00BFE10B1677433
:103230002674D9E784F8118026740020D5E70000B1
:103240008051010070B504000AD02068416821F067
:1032500008014160FFF722FA05464FF47A7608E04C
:10326000012070BDFFF71AFA401BB04201D90320BC
:1032700070BD206840680007F4D5002070BD70B5AF
:10328000040009D0606A002540B125616561A5622E
:1032900094F8510040B10CE0012070BD6068B0F5B9
:1032A000827FF4D0E561F2E784F85050204600F0C8
:1032B0003FF8022084F851002068016821F04001A5
:1032C0000160A088218900F4827001F40441084360
:1032D000A18901F400610843217C01F00201084347
:1032E000217D01F001010843218B01F400710843A5
:1032F000217F01F03801084394F8201001F080018B
:103300000843218D01F40051084321680860A06939
:10331000042101EA1040216848602068C16921F455
:103320000061C1616565012084F85100002070BD15
:1033300030B585B000240094019402940394006891
:103340001549884225D11548C16941F48041C161C0
:10335000C16901F480410491816941F008018161F2
:1033600080690F4D00F0080004904FF42040009059
:10337000022001900320039069462846FFF78CF84D
:103380004FF48040CDE90004694628460294FFF7D7
:1033900083F805B030BD0000003800400010024046
:1033A000000C01402DE9FF4F81B0044690F8500019
:1033B000012500270E9E9846934601280FD0AA4665
:1033C00084F850A0FFF76AF994F8511081466268BA
:1033D000404601290DD0B2F5827F08D103E00220DA
:1033E00005B0BDE8F08FA2680AB9042901D0022710
:1033F000C7E00299002968D0BBF1000FFBD0B8F1FB
:10340000000FF8D094F85110042902D0052184F857
:10341000511000216165C4F838B0A4F83E80A4F8CA
:103420003C80029A2263A4F83680A4F83480216498
:10343000616421680A68520603D40A6842F04002B7
:103440000A60E168B1F5006F616803D0E1B301285B
:1034500043D07AE009B1012838D1206B2168008877
:10346000C860206B801C2063E08E401EE0862DE04B
:103470002068816889070DD5E18E59B1012D09D1E8
:10348000216B0988C160206B801C2063E08E401E88
:10349000E086002520688168C9070BD0E18F49B11B
:1034A000C068A16B0880A06B801CA063E08F401EE9
:1034B000E0870125FFF7F2F8A0EB0900B04205D341
:1034C000701C03D003275AE007E056E0E08E002886
:1034D000CED1E08F0028CBD13DE0206B2168007871
:1034E0000873206B401C2063E08E401EE0862CE0B9
:1034F0002068816889070DD5E18E59B1012D09D168
:10350000216B09780173206B401C2063E08E401E04
:10351000E086002520688168C9070BD0E18F49B19A
:10352000C068A16B0870A06B401CA063E08F401EB8
:10353000E0870125FFF7B2F8A0EB0900B04202D303
:10354000701C02D0BEE7002EBCD0E08E0028CFD188
:10355000E08F0028CCD14A463146204601F0B0FD2C
:1035600018B10127202060650BE0A06818B9206819
:10357000C16880680090606D08B1012701E084F89F
:1035800051A0002084F85000384629E77047704762
:1035900070B590F83C20012A2CD0012580F83C50D1
:1035A000022280F83D2002685368946823F0700678
:1035B0000B6833435360104B02689A420ED00F4B96
:1035C0009A420BD0B2F1804F08D00D4B9A4205D0F1
:1035D0000C4B9A4202D00C4B9A4204D1496824F019
:1035E00080031943916080F83D50002180F83C1021
:1035F000084670BD022070BD002C0140003401401F
:103600000004004000080040000C004010B5040019
:1036100003D094F83D0010B107E0012010BD002058
:1036200084F83C00204600F01FF8022084F83D009A
:10363000211D206801F01CFF012084F8460084F859
:103640003E0084F83F0084F8400084F8410084F88C
:10365000420084F8430084F8440084F8450084F86C
:103660003D00002010BD000000B585B00021009194
:103670000191029103911E4A01681E48914217D19F
:10368000C16941F00201C161C16901F00201049107
:10369000816941F0200181618069694600F0200064
:1036A0000490042000901448FEF7F6FE05B000BD1B
:1036B000124A914208D1C16941F00401C161C06957
:1036C00000F004000490F1E70D4A9142EED1C16987
:1036D00041F00801C161C069002200F008000490B7
:1036E00001213220FFF766F83220FFF755F8DDE7B9
:1036F0000004004000100240001401400008004097
:10370000000C004090F83D10012901D001207047C5
:10371000022180F83D100168CA6842F00102CA60C7
:1037200000680E4988420ED00D4988420BD0B0F196
:10373000804F08D00B49884205D00B49884202D0FF
:103740000A49884204D1816801F00701062903D0A3
:10375000016841F00101016000207047002C014028
:10376000003401400004004000080040000C00400C
:1037700070B5044690F83C000025012817D00126BA
:1037800084F83C60022084F83D002068826822F0C2
:10379000770222F47F4282600868502838D00DDC1E
:1037A00020284FD005DC90B3102811D14AE0022028
:1037B00070BD302846D040280AD13BE060282FD089
:1037C00070280DD0B0F5805F03D0B0F5005F12D047
:1037D000012584F83D60002084F83C00284670BD37
:1037E000CB68D1E90121206801F088FE206881685A
:1037F00041F0770109E0CB68D1E90121206801F0AF
:103800007DFE2068816841F480418160E1E719E034
:10381000CA684968206801F08BFF5021206806E0E3
:10382000CA684968206801F094FF6021206801F0AF
:103830006FFECEE7CA684968206801F079FF402131
:103840002068F4E7226801461046F0E7704770B53B
:103850000446006801694FF00005C943890715D483
:10386000C168C943890711D4E91E0161012020778D
:10387000206880698007204602D0FFF7E7FF04E058
:1038800000F0BEF8204600F050F925772068016965
:10389000C943490717D4C168C943490713D46FF016
:1038A00004010161022020772068806910F4407FC4
:1038B000204602D0FFF7CAFF04E000F0A1F820463E
:1038C00000F033F9257720680169C943090716D448
:1038D000C168C943090712D46FF0080101610420CF
:1038E00020772068C0698007204602D0FFF7AEFF2E
:1038F00004E000F085F8204600F017F925772068ED
:103900000169C943C90617D4C168C943C90613D49C
:103910006FF010010161082020772068C06910F461
:10392000407F204602D0FFF791FF04E000F068F8E6
:10393000204600F0FAF8257720680169C943C907D5
:1039400008D1C168C943C90704D1891E0161204655
:1039500000F0ECF820680169C943090609D4C16880
:10396000C943090605D46FF0800101612046FFF7C5
:103970000DFE20680169C943490609D4C168C943DD
:10398000490605D46FF040010161204600F001F9BD
:1039900020680169C94389060BD4C168C9438906F7
:1039A00007D46FF0200101612046BDE87040FFF7A9
:1039B000EEBD70BD00B585B000210091019102916E
:1039C000039100680B49884211D10B48816941F08D
:1039D000040181618069694600F004000490402080
:1039E00000900220019003900448FEF755FD05B0B9
:1039F00000BD00000004004000100240000801402B
:103A0000704770B5044690F83C0000260D4601282A
:103A10000FD0012084F83C006AB1042A1DD0082A86
:103A20002FD00C2A3FD00126002084F83C003046DD
:103A300070BD022070BD206801F072FD20688169B0
:103A400041F0080181612068816921F004018161F0
:103A5000206881692A69114311E0206801F090FD16
:103A60002068816941F4006181612068816921F4E5
:103A700080618161206881692A6941EA022181614E
:103A8000D2E7206801F0B2FD2068C16941F0080169
:103A9000C1612068C16921F00401C1612068C16968
:103AA0002A69114311E0206801F0D4FD2068C16942
:103AB00041F40061C1612068C16921F48061C16184
:103AC0002068C1692A6941EA0221C161ACE710B5E9
:103AD000040003D094F83D0010B107E0012010BDB0
:103AE000002084F83C00204600F01EF8022084F8F4
:103AF0003D00211D206801F0BBFC012084F8460038
:103B000084F83E0084F83F0084F8400084F84100C7
:103B100084F8420084F8430084F8440084F84500A7
:103B200084F83D00002010BD7047704700680349CD
:103B3000884201D1FEF7B8BD70470000002C01405B
:103B400070B5044690F83C00012810D0012584F897
:103B50003C50022084F83D00204601F0A3FD0021E6
:103B600038B184F83D5084F83C10012070BD02202B
:103B700070BD2068C26822F04002C2602068C2683E
:103B800022F48042C26084F83D5084F83C1000204A
:103B900070BD70477047000003480068C16841F07D
:103BA0002001C160704700001C04002010F8411F74
:103BB0004078084370470000F8B50168044608687B
:103BC000CA684B6910F00F0F4FF0000559D003F091
:103BD000010602F49077374365D0C10705D0D105BF
:103BE00003D5616C41F001016164410705D5D90736
:103BF00003D0616C41F002016164810705D5D907EA
:103C000003D0616C41F004016164010707D502F043
:103C10002001314303D0616C41F008016164616CA3
:103C200000293AD0800604D5900602D5204601F03E
:103C3000E2FE20684069616CC0F38010090700D47F
:103C400060B3204601F0B0FE20684069400621D5EF
:103C50002068143050E8001F21F0400140E80012B5
:103C6000002AF5D1E06BA8B16D494163E06BFEF726
:103C7000CFF9002811D0E06B416B01B0BDE8F040F6
:103C8000084783060FD593060DD52046BDE8F840BA
:103C900001F0B1BE2046FFF77FFFF8BD2046FFF7D9
:103CA0007BFF6564F8BD266B2023012E7CD1C60600
:103CB0007AD5D60678D508684868009048694FF0EC
:103CC0000206400640D5E16B086840680004000C1D
:103CD000E8D0A28D8242E5D9E085886920282DD0E0
:103CE00020680C3050E8001F21F4807140E8001279
:103CF000002AF5D12068143050E8001F21F001019E
:103D000040E80012002AF5D12068143050E8001F66
:103D100021F0400140E80012002AF5D184F8423039
:103D2000256320680C3050E8001F21F0100140E8A6
:103D30000012002AF5D1E06BFEF746F96663A08D0C
:103D4000E18D401A81B22AE0A08DE18D401A81B246
:103D5000E08D0028A6D00029A4D020680C3050E8BF
:103D6000002F22F4907240E80027002FF5D1206840
:103D7000143050E8002F22F0010240E80027002F05
:103D8000F5D184F84230256320680C3050E8002FCC
:103D900022F0100240E80023002BF5D16663204694
:103DA000FFF7F8FEF8BDFFE705062BD5150629D568
:103DB00094F841002128F5D1A068B0F5805F01D1C9
:103DC0002069B0B1206A411C2162216800784860F6
:103DD000E08C401E0004000CE084E3D12068C16840
:103DE00021F08001C1602068C16841F04001C160DC
:103DF000D8E7206A0088C0F308004860206A801C69
:103E00002062E5E74006CDD55006CBD5CA682046EE
:103E100022F04002CA6084F8413000F006F9C1E7A0
:103E20009959000870B5040004D094F841000025A9
:103E300010B106E0012070BD84F84050204600F02B
:103E400023F8242084F841002068C16821F400513F
:103E5000C160204601F030FE2068016921F49041E4
:103E600001612068416921F02A0141612068C1682F
:103E700041F40051C1606564202084F8410084F859
:103E800042006563002070BDF0B585B00024009449
:103E900001940294039400682D4F2E4902230322BB
:103EA0002D4E2E4DB84225D1C86940F40030C8616E
:103EB000C86900F400300490886940F020008861EF
:103EC0008869694600F0200004902020CDE90003B5
:103ED00003923046FEF7E0FA4020CDE9000469463F
:103EE00030460294FEF7D8FA686840F0E06040F08F
:103EF000080029E01A4FB84227D1C86940F4802051
:103F0000C861C86900F480200490886940F02000EE
:103F100088618869694600F020000490B815CDE9F1
:103F2000000303923046FEF7B7FA7815CDE9000496
:103F3000694630460294FEF7AFFA686820F0300018
:103F400040F0E06040F03000686005B0F0BD000077
:103F500000440040001002400014014000000140F5
:103F60000048004010B5044600680749884209D15E
:103F70000648FFF71BFE2028FAD12068C16841F0EF
:103F80002001C16010BD0000004800401C0400205A
:103F90002DE9F843044690F841001F4615460E46A9
:103FA000202802D00220BDE8F8837EB175B1002040
:103FB0006064212084F84100FEF770FBA5848046F0
:103FC000E584A068B0F5805F02D003E00120EAE755
:103FD000206910B1354600260EE000250CE0802156
:103FE000204601F0C5FDA0B9ADB115F8010B21685F
:103FF0004860E08C401EE084E08C43464FF00002B5
:1040000000970028EBD14FF04001204601F0B0FDB1
:1040100030B10320C7E736F8020BC0F30800E6E72B
:10402000202084F841000020BDE77047FEE7000033
:10403000044B20B1012280211846FEF72ABB002242
:10404000F9E7000000100140044B20B1012280215B
:104050001846FEF71EBB0022F9E7000000100140E1
:1040600070B505460C46808CFCF76EFB2066688FA9
:10407000E087A88FA4F84000E88FA4F84200288FBA
:10408000A08795F8400084F8690095F8360084F818
:104090006A0094F89A000A4E800702D5B6F86800C4
:1040A00000E06889FCF750FBE064FCF789FB708155
:1040B000A87994F86C1060F3861184F86C1070BDC8
:1040C000CC0500202DE9F041054611F01F000C46FB
:1040D00002F01F01C0F12007C2F3471688460FD037
:1040E0007EB1D01BC0F3471600F01F0847B33A4615
:1040F0002146284602F01CFEE01984B23D441FE030
:104100004EB90A460EE020222146284602F010FE53
:104110002034A4B22035761EF6B2F4D2B8F10000F5
:1041200012D0024621462846BDE8F04102F000BE0A
:1041300020222146284602F0FBFD2034A4B220357F
:10414000761EF6B2F4D2E9E7BDE8F081FEB50024B0
:1041500022480094019420490294016089158160ED
:10416000012505730475042606614FF4602144603F
:10417000C161FDF7C9FD08B1FDF73AFC07200094C5
:10418000CDE9015069461548FDF7CEFC08B1FDF7B1
:104190002FFC0220CDE9005069461048FDF7C4FC11
:1041A00008B1FDF725FC0320CDE9006069460B4806
:1041B000FDF7BAFC08B1FDF71BFC0520CDE90006B0
:1041C00069460648FDF7B0FC08B1FDF711FC03484D
:1041D000FDF73CFCFEBD0000002401401C02002055
:1041E000054808B5416941F001014161406900F0AD
:1041F0000100009008BD00000010024010B5244BE3
:1042000000220121234803F087F9234C606338B171
:104210004FF47A7103F0C2F910B120A001F008FD4B
:104220001B4A0221183A042003F086F82063214A31
:104230000021214803F01EF91E4A6061243200214A
:104240001E4803F017F91B4AA061483200211C48A0
:1042500003F010F9174AE0616C320021194803F0AD
:1042600009F90B4A2062843A0021174803F002F949
:10427000074A6062603A0021144803F0FBF8044AE0
:10428000A0623C3A0021124803F0F4F8E06210BD4D
:10429000B8940008010C000800000020206F73543F
:1042A000696D65725374617274206661696C6564CE
:1042B00021000000A4930008715200087550000806
:1042C0006D700008290E0008454C0008F94A0008E6
:1042D000E11000082DE9F04F85B000244648009415
:1042E000019402940394816941F0400181618169E4
:1042F00001F040010491816941F0100181618169FF
:1043000001F010010491816941F00401816181692A
:1043100001F004010491816941F008018161816922
:1043200001F008010491816941F0200181618069F7
:10433000DFF8C89000F02000049000225F2148467A
:10434000FEF7A7F901224FF4C0614846FEF7A1F934
:10435000DFF8ACA04FF48058002241465046FEF7EB
:1043600098F9DFF8A0B00022C0215846FEF791F975
:1043700040F21F2001250226CDE90005CDE90246C5
:1043800069464846FEF788F84027CDE90075CDE933
:10439000025669464846FEF77FF8A802CDE90005B7
:1043A000CDE9025669464846FEF776F8CDF800801A
:1043B0000396CDE9015469465046FEF76DF84FF477
:1043C0009260CDE9000469460F480294FEF764F854
:1043D000CDE90075CDE9025669465846FEF75CF80E
:1043E00080208DE86100694658460396FEF754F830
:1043F00005B0BDE8F08F0000001002400018014039
:10440000000C014000100140001401401CB50024C4
:1044100017480094154901940160611EC0E9011418
:10442000FEF7F2FD08B1FDF7E3FA8DF800408DF8D4
:1044300001408DF80240012269460D48FEF7AAFEB0
:1044400008B1FDF7D5FA01208DF804008DF80500BC
:104450008DF8060002468DF8074001A90448FEF7D2
:1044600037FE002801D0FDF7C3FA1CBD002800402C
:1044700090020020104810B50E4901604FF482717F
:10448000416000218160C1604FF400720161C0E9A8
:1044900005123822C0E90721416281620A21C16206
:1044A000FEF7EDFE08B1FDF7A3FABDE81040FF20CE
:1044B00000F0F6BD00380040A402002010B58EB018
:1044C00000240794089409940A940B941C216846CC
:1044D0000C94FBF7BEFE21481F4901604721C0E94B
:1044E000011440F2E731C0E9031480218161FFF734
:1044F0008DF808B1FDF77CFA4FF40050CDE90704C0
:10450000099407A915480A94FFF732F908B1FDF795
:104510006FFA1248FFF7DBFA08B1FDF769FA40209D
:10452000CDE90B040BA90D48FFF732F808B1FDF7F0
:104530005FFA6020CDE90004029400226946074832
:104540000494FFF75EFA08B1FDF752FA0348FFF74B
:1045500031FA0EB010BD000000040040FC02002043
:1045600010B586B000241848009401940294039476
:1045700004941449059401604721C0E9011440F2F4
:10458000E731C0E9031480218161FFF73FF808B1EA
:10459000FDF72EFA4FF48050009069460A48FFF765
:1045A000E7F808B1FDF724FA049404A90648059435
:1045B000FEF7EEFF08B1FDF71BFA0348FFF7A2F87C
:1045C00006B010BD000C00408C0300200C4810B554
:1045D0000A4901604FF416514160002181600C22AC
:1045E000C160C0E904128161C161FFF71BFC0028B2
:1045F00003D0BDE81040FDF7FBB910BD00440040FA
:10460000D4030020FEE7FEE72DE9F04F0446B0F9A1
:10461000020087B08246B4F90670FCF79AF80546A6
:104620000E46D4E90401FBF771FE20F00040FCF7D0
:10463000FAF82A463346FCF721F903D26069206272
:10464000E06142E094F82D904846FCF77DF8804602
:1046500000903846FCF76FF8834666695D46304641
:10466000E169FBF753FE2946FBF756FE4146FBF78F
:1046700053FE05465846216AFBF74EFE2946FBF7D6
:10468000F3FDB4F9005080462846DDF800B0FCF791
:1046900052F83146FBF740FE5946FBF73DFE4146D6
:1046A000FBF7E2FD804605FB0970FCF744F8014684
:1046B0004046FBF763FE6E49884202DA6D49884244
:1046C00001D3216200E02062E6615046FCF733F836
:1046D00083465D46216A2069FBF718FE2946FCF7F0
:1046E0000BF904D84FF47A70208100200AE05D466F
:1046F0002169206AFBF70AFE2946FCF7FDF805D878
:1047000000202081E06007B0BDE8F08FD4E90410FC
:10471000FCF7E8F827D205219AFBF1F0FCF70BF83B
:104720000746D4E90401FBF7F1FD3946FCF7E4F84C
:1047300019D225695E462846216AFBF7E7FD8046C7
:1047400039463046FBF7E2FD074628466169FBF72C
:10475000DDFD3146FBF7DDFD4146FBF7DDFD39466A
:10476000FBF70CFE03E0216A2069FBF7CFFD94F80C
:104770003010890700D400203F4E3146FBF7CCFDB6
:1047800007465D46B4F90000FBF7D5FF3946FBF755
:10479000C3FD2946FBF7F2FD0546E068FBF7CBFFBA
:1047A0002946FBF761FDFBF7F2FFE060002801DA24
:1047B0000020E060B4F9048090FBF8F0FBF7BBFF49
:1047C000DFF8B89005462F46C9F81400B04205DB63
:1047D0004FF47A7108FB01F03546E060D4F820A070
:1047E00020695146FBF792FD2349FBF795FD594699
:1047F000FBF7C4FD0646C9F81000D9F80C00401CB0
:10480000C9F80C0006903846FCF70DF88346304690
:104810000091FCF708F8814688465046FCF703F8FB
:1048200082460F466069FBF7FEFF009BCDF800A0B3
:10483000CDE904B3CDF80C80CDE9017902460B46F1
:104840000FA0069901F0F4F931462846FBF70CFD5C
:1048500010F1FF4F01D3002007E00749884202DD35
:104860004FF47A7001E0FBF792FF20814BE70000E4
:1048700000C0DA450000FAC300007A443801002085
:1048800025642C252E31662C252E3166202C252ED4
:104890003166202C252E31660D0A000002460120CB
:1048A000B12A0DD8C2EBC203064A02EB8302B2F969
:1048B0000230B2F90420994200DA0020914200DD72
:1048C000002070474C97000870B54FF440742146A3
:1048D000002002F0C5FC05462146002002F0C0FC85
:1048E0000446002D45D0002C43D0002034F8101091
:1048F000C94325F81010401CB128F7D94FF4B276FF
:1049000032460021284602F0D8F9324600212046DE
:1049100002F0D3F958B10021084635F8102034F8D8
:1049200010309A4207D013A001F082F9DDE717A0FA
:1049300001F07EF913E0401CB128EED90029D4D152
:10494000184A194B194E002034F8101022F8101094
:1049500023F8101026F81010401CB128F4D929466D
:10496000002002F061FC2146BDE87040002002F00A
:104970005BBC70BD5061724C6F61642045727253B4
:1049800074203D20313B2121210D0A005061724CE1
:104990006F61642072656164206661696C21212108
:1049A0000D0A0000CC05002032070020CA080020B4
:1049B0002DE9F8430546B1282CD21748174F4580FA
:1049C0004FF6FF7007EB450800EA450631464046C2
:1049D0000222FFF777FB37F81500C043ADF800005F
:1049E0000524082002F052FC31460222684602F0FB
:1049F00064F958B1641EF4D5BDF8000037F81510FD
:104A0000884207D006A001F013F9DFE70DA001F0FE
:104A10000FF9F1E7BDE8F8839A010020CC050020EA
:104A2000506172582E7556616C20213D2050617284
:104A30005461625B506F735D2E7556616C2121214C
:104A40000D0A0000506172536176652072656164E1
:104A5000206661696C2121210D0A00002DE9F041D9
:104A60002048214E042430F8141036F814209142C6
:104A700034D020F81420A0B2FFF79AFF00271B4D76
:104A8000042C0AD0052C1BD0312C04D1184819490C
:104A9000B0F862000880BDE8F08115F89C0F20F0A6
:104AA000010005F888093089FBF74EFE2968FBF7FD
:104AB0002DFC68616F7785F859702F76AF67EAE74C
:104AC0007089FBF741FE55F8501FFBF71FFC68612A
:104AD0006F7705F81F7CEF632F76DCE7641CB12C41
:104AE000C1D3D8E7CA08002032070020E00A00201E
:104AF000CC05002030010020002002F015FB00F062
:104B0000BBFB044901204880FFF7A8FFC82002F042
:104B1000BDFBF9E7CC0500202DE9F05F464A0C46C5
:104B20004FF01E0A506001880546B1FBFAF30AFBFC
:104B30001310424E5080F188002966D06988002900
:104B400063D0B6F86C10814272D32889C4F8900003
:104B50009346E888FBF7F8FD216DFBF7DAFBDFF8F9
:104B6000E0804146FBF7D8FB0746A888FBF7ECFD41
:104B70006169FBF7CEFB4146FBF7CEFB8046B146B1
:104B8000F08CFBF7F7FD05460E4627F00040FBF7DB
:104B90004AFE2A463346FBF759FE42D84D46B9F83D
:104BA0002800FBF7E7FD06460F4628F00040FBF71C
:104BB0003AFE32463B46FBF749FE32D894F89B005A
:104BC00040F0010084F89B00DBF80400D4F88C204E
:104BD0000189C1EB0111B2EB810F16D30026C4F895
:104BE0008C600188491C89B2B1FBFAF701800AFB8D
:104BF00017114289914208D94188491E0904090CBC
:104C0000418004D0BBF800100180BDE8F09F14F88B
:104C10009B1F21F0010121700188491E0180EE8057
:104C2000F3E714F89B0F20F001002070EDE7FFE799
:104C300010882880F5E7000030010020CC05002016
:104C4000000020410B4C0A480C4DA0630A486067E5
:104C500094F89A10890704D506492846FFF75CFFA7
:104C600002E00448FCF7C6FE0A2002F00FFBEFE763
:104C700051590008E00A0020314000082E060020AB
:104C8000010901EB810100F00F0000EB4100C0B20F
:104C90007047002102E00A38C0B2491C0A28FAD243
:104CA000090740EA116070472DE9F04104460025EC
:104CB000C07B627BA37B42E0012A16D0032A14D07A
:104CC000052A12D0072A10D0082A0ED00A2A0CD0A2
:104CD0000C2A0AD0042A10D0062A0ED0092A0CD099
:104CE0000B2A0AD0022A0DD028E01F2B0CD30C2A45
:104CF00005D101221346401C20E01E2B04D30123C2
:104D0000521C1BE01C2B02D203F1010316E011D14F
:104D100083B29E0710D16426B3FBF6F706FB173665
:104D200036B94FF4C876B3FBF6F706FB17331BB959
:104D30001D2303E01D2B01D1032201236D1C8D4295
:104D4000BAD3D1B2E0736173DAB2A27300F04EF855
:104D50002073BDE8F08170B50546FDF79FFC044661
:104D60004FF47A7606E0FDF799FC001BB04201D9BA
:104D7000032070BD286840688006F4D52868416823
:104D800041F010014160002070BD70B5054600681B
:104D9000416821F010014160FDF780FC04464FF4AA
:104DA0007A7606E0FDF77AFC001BB04201D90320B9
:104DB00070BD286840688006F4D5002070BD00688A
:104DC000016A406A80B240EA014070470068816928
:104DD0008AB2C1698BB2816989B28A4203D0C06943
:104DE00061F31F40704743EA02407047F0B5642604
:104DF000C1EBC1030925B700072403EB0113032905
:104E0000B3FBF5F100F5FA60114401440AD2401EEB
:104E1000B0FBF6F201EB9001B0FBF7F0891A084401
:104E2000001D08E0B0FBF6F201EB9001B0FBF7F0DB
:104E3000891A0844801CB0FBF4F104FB1100C0B2D5
:104E4000F0BD70B50D4606460024FFF784FF48B953
:104E50003168280C08623168A8B248623046FFF712
:104E600094FF00B10124204670BD70B50D46064682
:104E70000024FFF770FF48B93168280C8861316859
:104E8000A8B2C8613046FFF780FF00B10124204678
:104E900070BD00002DE9F0470026A0F59652594953
:104EA000B12A06D801EB4000A0F54050B0F9806A65
:104EB000A4E0584DA0F20553534FDFF850915448E9
:104EC000554CD5F88C204FF03C0C0F2B70D2DFE8FE
:104ED00003F0080A102A464F6470787B8185888B1E
:104EE0008E00E86F01E0D5F884002146FBF714FA44
:104EF00032E0B1F83601FBF73DFC06460F4621468D
:104F00002869FBF709FAA969FBF700FA20F00040CD
:104F1000FBF789FC32463B46FBF798FC01D8286931
:104F2000E3E7A86918E0B1F83801FBF723FC06466F
:104F30000F462146E86CFBF7EFF9696DFBF7E6F9E0
:104F400020F00040FBF76FFC3B463246FBF77EFC4F
:104F500001D8E86CC9E7686DFBF719FC3CE0B5F9CE
:104F60000000FBF7F6FB04460E46B5F9080007E023
:104F7000B5F93C00FBF7EDFB04460E46B5F94400DD
:104F8000FBF7E7FB3A464B46FBF7DDFA2246334692
:104F9000FBF74BFBFBF728FC1EE080210546FDF7E5
:104FA00073FB044610212846FDF76EFB44EA4006D9
:104FB00024E04FF48061FDF767FB01281ED0012635
:104FC0001CE0B2FBFCF007E0B2FBFCF0B5F890107F
:104FD000081A01E01148008806B20FE0B1F86460D9
:104FE0000CE00F48468C09E0B1F86C6006E00D4813
:104FF0001E210088B0FBF1F201FB1206B0B2BDE841
:10500000F0870000CC0500209A9999999999B93FA9
:1050100000140140E00A002000002041320100207D
:10502000980800203001002070B50D460146A0F51B
:1050300096500D4AB1280ED284B2148129B220466E
:10504000FFF72CFC70B1094820F81450A0F5B3709C
:1050500020F8145006E0A1F5A06188B2044910813F
:1050600021F81050284670BD14010020320700209E
:1050700098080020FFF7CAF9002206490648FDF704
:1050800056FF002205490448FDF72AFF0A2002F0D6
:10509000FDF8F1E738000020900200203B000020DE
:1050A00001B582B04FF47A700090012301AA02A9E1
:1050B0000248FEF777F99DF804000EBDA402002017
:1050C00038B50B46009204460022802100F008F813
:1050D000002804D0606D40F020006065032038BDDA
:1050E0002DE9F8431E46914688460446089DFDF783
:1050F000D5FA401B351AFDF7D1FA07462548006856
:10510000C0F3CB30684338E0701C37D0FDF7C6FAE7
:10511000C01BA84203D215B1009860B32CE02068F0
:10512000416821F0E00141606068B0F5827F0BD1F9
:10513000A068B0F5004F02D0B0F5806F04D12068B0
:10514000016821F040010160A06AB0F5005F09D15B
:105150002068016821F4005101602068016841F471
:1051600000510160012084F85100002084F85000B3
:105170000320BDE8F8830025401E00902068816868
:1051800038EA010004D000204845BDD10020F0E7F6
:105190000120F9E7500000202DE9F05F0C4606469B
:1051A000D4E90410304D314F4FF0C80BFBF7AEF887
:1051B000804696F82800FBF7DDFAA9462A46BA464B
:1051C0003B46FBF7C0F905460F4628F00040FBF7C9
:1051D0002AFB2A463B46FBF739FB0FD894F82C00F4
:1051E0003C2814D984F82CB0012084F8310094F8BC
:1051F0009B0040F0010084F89B0008E094F89B00BD
:1052000020F0010084F89B00002084F82C00D4E9F1
:105210001310FBF77BF8074696F82600FBF7AAFA6F
:105220004A465346FBF78FF905460E4627F00040E5
:10523000FBF7F9FA2A463346FBF708FB0AD894F83D
:1052400068003C2804D984F868B0012084F86D0017
:10525000BDE8F09F14F89B0F20F0010020700020A3
:1052600004F8330CF4E700009A9999999999B93F99
:10527000012002F00BF8FBE770B50024FFF724FBD8
:105280000A4D2888B0F5965F0ED0094EC4EBC400D5
:1052900006EB8000C08825F814002046FFF788FB45
:1052A000641CA4B2B12CF1D370BD0000CC05002069
:1052B0004C97000810B5502080F31188BFF34F8F32
:1052C000BFF36F8F03F062FE18B104494FF08050B6
:1052D0000860002080F3118810BD000004ED00E09C
:1052E00030B595B028216846FAF7B3FF14210AA813
:1052F000FAF7AFFF18210FA8FAF7ABFF05204FF41C
:10530000803100248DE813000120039004904FF4B5
:10531000E010CDE90810022507956846FDF754FC1A
:1053200008B172B6FEE70F20CDE90A054FF48060A0
:10533000CDE90C4002210AA80E94FDF743FB08B109
:1053400072B6FEE703200F904FF4807010904FF478
:10535000404011900FA8FDF7C1FA002801D072B6A5
:10536000FEE715B030BD70470148FEF770BA000087
:105370006404002010B50948FEF769FA0748FEF7F3
:1053800066FA06480068C168C943C90705D1891E85
:105390000161BDE8104002F0FFBC10BD44030020D5
:1053A00010B52E48FEF753FA2D4A00212D4C1088D7
:1053B000401C80B21080B0F57A7F2AD3118014F897
:1053C000680F401C207014F83C0C401C04F83C0C86
:1053D000E088401CE08034F8360C401C24F8360C81
:1053E000E078401CE07014F8390C401C04F8390CCB
:1053F000A08D401CA08534F8300F401C24F8030B0E
:1054000014F89B09C00704D0D4F88C00401CC4F8E1
:105410008C00B4F89600401CA4F8960094F878002C
:10542000421C84F87820642801D384F878100E4850
:1054300094F87810B0F858210C48914201D201221A
:1054400000E000221021FDF724F934F8700F401C11
:1054500024F83C092088401C208010BD8C030020CB
:1054600040000020E00A0020CC0500200018014088
:10547000F0B502681C4D1D4E1D4FDFF878C01E4B65
:105480004FF0804EA84209D0984207D0704505D011
:10549000B04203D0B84201D0604503D122F070047D
:1054A0004A682243A84209D0984207D0704505D0E7
:1054B000B04203D0B84201D0604503D122F4407419
:1054C000CA6822434C6922F08002224302608A6843
:1054D000C2620A688262A84201D0984201D1096979
:1054E000016301214161F0BD002C01400004004036
:1054F00000080040000C00400034014010B58468F2
:1055000042EA032224F47F440A432243826010BD0E
:10551000826822F070020A4342F0070181607047FE
:10552000F0B5026A036A23F00103036243688469E9
:10553000114E24F073050C68104F2C4322F0020525
:105540008A682A43B04201D0B84205D122F008054A
:10555000CA682A4322F00402B04201D0B84205D101
:105560004D6923F440731D438B692B434360846171
:10557000496841630262F0BD002C014000340140E3
:10558000F0B5026A036A23F010030362436884697A
:105590000D6824F4E64444EA05248D6822F02002D4
:1055A00042EA05120F4D104EA84201D0B04206D17A
:1055B000CF6822F0800242EA071222F04002A8429D
:1055C00001D0B04207D14D6923F4406343EA85031B
:1055D0008D6943EA8503436084614968816302629F
:1055E000F0BD0000002C014000340140F0B5026A1B
:1055F000036A23F4807303624368C46922F400726F
:1056000024F073050C68124E2C438D6842EA052283
:105610000E4DA84201D0B04206D1CF6822F40062FC
:1056200042EA072222F48062A84201D0B04207D1A8
:105630004D6923F4405343EA05138D6943EA05138A
:105640004360C4614968C1630262F0BD002C01403F
:105650000034014030B5036A026A22F480520262CB
:105660004268C4690D6824F4E64444EA05248D6860
:1056700023F4005343EA0533084DA84202D0084DF5
:10568000A84204D14D6922F4804242EA8512426068
:10569000C46149680164036230BD0000002C014010
:1056A0000034014070B50268002493684D6823F00F
:1056B00070031D430B6825F007052B4393604A6870
:1056C00012F00F0F31D11211082A2ED2DFE802F0AA
:1056D0002E2E2E2E0B2127040B69D1E90221006802
:1056E000FFF70CFF22E00A68052A10D00268156A4D
:1056F000136A23F00103136202689369096923F0B6
:10570000F00343EA01119161006805620EE0012097
:1057100070BD0A698968006800F00AF806E00A6945
:105720008968006800F015F800E00124204670BD8B
:1057300010B5046A036A23F001030362836923F04E
:10574000F00343EA021324F00A020A43836102626F
:1057500010BD10B5036A046A24F010040462846961
:1057600023F0A00324F4704444EA023243EA011116
:105770008261016210BD00002DE9F84F0E4604461B
:105780001D46174656491068FAF7C6FD00900020DE
:1057900004EB400134F91020B1F9021091427DD0A0
:1057A000401CC0B2DFF83CA1DFF83CB10B28EFD3BE
:1057B000287834F91000FAF7BEFF0099FBF792F849
:1057C0003BD8287804EB4000B0F90200FAF7B3FFA9
:1057D0000099FBF791F830D82D7804EB450034F9A7
:1057E0001590B0F90210A1EB0900FAF7B2FF0446D8
:1057F00006EB450036F91550B0F902008846401B0B
:10580000FAF7A7FF43462246FAF70FFFFBF74EF8D9
:1058100004464846FAF78FFF2146FAF77DFD064613
:105820002846FAF788FF3146FAF770FD054621460B
:105830000098FAF771FD294634E0B4F91600FAF73A
:105840007AFF0099FBF74EF839D2B4F91610B4F983
:105850001480A1EB0800FAF77CFF0446B6F91600A5
:10586000B6F914600D46801BFAF773FF22462B46EB
:10587000FAF7DBFEFBF71AF805464046FAF75BFF3E
:105880002946FAF749FD04463046FAF754FF214607
:10589000FAF73CFD04462946009800E00DE0FAF7CF
:1058A0003BFD2146FAF7E0FCFAF7BDFF52465B46A6
:1058B000FAF749FEFAF7FAFF3860BDE8F88FB4F955
:1058C0000000FAF738FF0099FBF716F8F5D32878AF
:1058D0000B2801D2401C00E000202870EDE70000FA
:1058E000000020419A9999999999B93F70B5054658
:1058F0000C46C08BFAF728FF6062688D6080A88D27
:10590000A080E88DE080688E208095F8340084F8CF
:105910002D0095F8300084F82E0094F89A000B4E74
:10592000800702D5B6F9660001E0B6F90800FAF77B
:1059300002FF2061FAF744FF3081A87994F8301013
:1059400060F3861184F8301070BD0000CC05002093
:10595000044B20B1012240211846FCF79ABE0022D8
:10596000F9E7000000100140044B20B10122402162
:105970001846FCF78EBE0022F9E700000010014037
:1059800010B502F093FA002805D0D0E90012BDE866
:1059900010401046084710BD10B5406A0021C1856F
:1059A000C184FEF7F9F810BD01680C3151E8002FF1
:1059B00022F4907241E80023002BF5D101681431E4
:1059C00051E8002F22F0010241E80023002BF5D11D
:1059D000016B012909D101680C3151E8002F22F037
:1059E000100241E80023002BF5D1202180F842105D
:1059F00000210163704708B590F84210222901D0B8
:105A0000022008BD81684FF48053994201D1026998
:105A100022B1826A99421BD049B10AE00268816AC8
:105A20005268C2F308020A80816A891C08E0016991
:105A300071B10168496801F07F011170816A491CE8
:105A40008162C18D491E0904090CC18503D01BE088
:105A500001684968F1E70168CA6822F02002CA605B
:105A60000168CA6822F48072CA6001684A6922F03B
:105A700001024A61202180F8421000214163026B3B
:105A8000012A03D0FEF76EFA002008BD0163016809
:105A90000C3151E8002F22F0100241E80023002BC6
:105AA000F5D101680A68D20602D50A6849680091F2
:105AB000818DFEF76FF8E7E770B50446006801696D
:105AC000E26821F4405111430161A168206901435A
:105AD000606901432068C26841F20C639A430A433B
