:020000040800F2
:10000000B8660020DD01000823440008333F0008E3
:1000100021440008CD100008E15A0008000000004B
:100020000000000000000000000000004501000882
:100030000919000800000000890100089D5200080D
:10004000F7010008F7010008F7010008F7010008B0
:10005000F7010008F7010008F7010008F7010008A0
:10006000F7010008F7010008F7010008351800083B
:10007000F7010008F7010008F7010008F701000880
:10008000F7010008F7010008890B0008F7010008D4
:10009000F7010008F7010008F7010008F701000860
:1000A000F701000851530008F7010008F7010008A4
:1000B000F7010008F70100085D530008F701000888
:1000C000F7010008F7010008F7010008F701000830
:1000D000F7010008F70100089D5A0008A95A000816
:1000E000F7010008F7010008F7010008F701000810
:1000F000F7010008F7010008F7010008F701000800
:10010000F7010008F701000889530008F70100080B
:10011000F7010008F7010008F7010008F7010008DF
:10012000F7010008F7010008F7010008F7010008CF
:10013000DFF80CD000F0EAFC00480047956E00089C
:10014000B8660020224B19680868B0E8F00F80F309
:100150000988BFF36F8F4FF0000080F311884EF0D5
:100160000D0E70470000000006480068006880F32C
:10017000088862B661B6BFF34F8FBFF36F8F00DFA1
:1001800000BF00BF08ED00E0EFF30980BFF36F8F01
:100190000F4B1A6820E9F00F106008B54FF05000BF
:1001A00080F31188BFF34F8FBFF36F8F08F0B4F85F
:1001B0004FF0000080F31188BDE808401968086816
:1001C000B0E8F00F80F30988BFF36F8F704700BF6E
:1001D00094010020EFF30580704700000648804737
:1001E00006480047FEE7FEE7FEE7FEE7FEE7FEE71C
:1001F000FEE7FEE7FEE7FEE74F5300083101000887
:10020000202A04DB203A21FA02F00021704721FA6B
:1002100002F3D040C2F120029140084319467047D2
:1002200040EA01039B0703D009E008C9121F08C078
:10023000042AFAD203E011F8013B00F8013B521EF8
:10024000F9D27047D2B201E000F8012B491EFBD26F
:1002500070470022F6E710B513460A4604461946D1
:10026000FFF7F0FF204610BDF0B480EA0102D40F82
:100270004200B2EB410F02D20246084611464A0044
:1002800042D0C30DDDB2C1F3C752AD1A202D35DA0D
:10029000C1F3160141F4000204B15242C5F1200637
:1002A00002FA06F12A411044B3EBD05F23D0C4B167
:1002B000012DA0EBC35009DCF0BC4FF0004202EA74
:1002C000C352DBB200F5000000F07DBB400000F13E
:1002D000807000EBC350A0F1807040EAD1704900FB
:1002E00009E0490841EAC071A0EBC35000F50000E5
:1002F000400800EBC350F0BC00F05CBB614201223F
:1003000002EB4101001BF6E7F0BC704781F00041B1
:10031000AAE780F00040A7E780EA010210B502F0EA
:100320000043400022D04A001FD0010E01EB1261B1
:10033000C0F35600C2F3560240F4000042F400023B
:10034000A0FB022000047F39140400D0401C50EAB6
:10035000124001D44000491EC2B20C0604EBD0107A
:10036000401C4008802A02D003E0002010BD20F08D
:100370000100002900DA0020184310BD30B480EAE3
:10038000010202F0004530F0004221F0004013D09D
:1003900090B1C30DD40DC2F31601C0F31600E41AD8
:1003A00041F4000140F400027D34914201D3641C09
:1003B00000E04900002C02DA30BC002070474FF406
:1003C00000000023914201D3891A034340084FEAF9
:1003D0004101F7D151B1914202D14FF0004105E006
:1003E00002D24FF0010101E06FF0010103EBC450B4
:1003F000284430BC00F0DEBA2DE9FE4F804681EA89
:100400000300C00F0C46009021F0004123F000458E
:10041000B8EB0200A94105D24046214690461C4651
:100420000B46024623F00040104347D0270DC7F388
:100430000A00C3F30A510290401A019040286BDA77
:10044000C3F3130040F4801B0098924620B10023B0
:10045000D2EB030A63EB0B0B01985946C0F1400243
:10046000504600F086FA06460D4650465946019A17
:1004700000F08EFA10EB08006141002487EA115267
:1004800084EAE7731A4340D0009A62B3019A012AC2
:100490004FEA075215DC001B61EB02014FF00042EE
:1004A00002EA0752CDE90042001C41F580113246B4
:1004B0002B4600F0C5FA03B0BDE8F08F4046214658
:1004C000F9E7001B61EB0201001C41F580130018E5
:1004D0005B412018A2F5001747EB030140EAD570F5
:1004E000B6196D4111E06D084FEA360645EAC07550
:1004F0004FEA0752001B61EB0201001C41F580111D
:1005000049084FEA30000019514132462B4603B0EA
:10051000BDE8F04F00F085BA0098012240000023AA
:10052000D0EB020263EBE073009821464FEAE074DF
:10053000B8EB000061EB0401E9E783F000435BE7FF
:1005400081F0004158E72DE9FE4F81EA030404F0F1
:10055000004421F0004100944FF0000B23F00043D1
:1005600050EA01045ED052EA03045BD0C3F30A549C
:10057000C1F30A552C44A4F2F3340194A0FB0254B5
:10058000C1F3130141F48011C3F3130343F4801347
:1005900001FB024400FB034E840A970A44EA81549B
:1005A00047EA8357A4FB076802958D0A05FB078578
:1005B0004FEA932C04FB0C542705029D4FEA065882
:1005C00047EA1637B5EB08056EEB070C870E920E5F
:1005D00047EA811742EA8312A7FB0201B6EB0B013F
:1005E00064EB00042B0D43EA0C335E1844EB1C5003
:1005F000DA465146E7FB0201C5F313044FEA0B3319
:1006000043EA14534FEA0432019C43EA0603A4F17F
:100610000C040294009CCDE900B400F011FA03B080
:10062000BDE8F08F00200146F9E72DE9F04D81EAA1
:10063000030404F0004B21F0004514464FF0000A7B
:1006400023F0004150EA050220D054EA01021DD0F7
:10065000C5F30A570246C5F31303C1F31300C1F3F0
:100660000A5640F4801543F48013A7EB0608101BCC
:10067000D64608F2FD3873EB050002D308F10108F5
:1006800001E092185B41B8F1000F03DA0020014647
:10069000BDE8F08D00204FF48011064684460EE040
:1006A000171B73EB050705D3121B63EB050306430A
:1006B0004CEA010C49084FEA300092185B4150EABD
:1006C0000107EDD152EA030012D082EA040083EA66
:1006D0000501084305D0101BAB4106D201220023BF
:1006E00006E000224FF0004302E06FF001025310D9
:1006F0001AEB06004CEB085110EB0A0041EB0B0122
:10070000BDE8F04D00F08DB970B521F00043034312
:100710000CD0C1F30A550024D5EB040564EB0403A7
:10072000D617AD1AB34102DB0020014670BD201878
:1007300041EB025170BDC10F80EAE0700844CA0766
:100740009623002100F03FB996230022114600F0C5
:100750003AB90EB5C10F80EAE0700844CA0700211B
:1007600040F233438DE80E000A460B4600F068F96C
:1007700003B000BD0EB540F2334102910021CDE936
:1007800000110A460B4600F05BF903B000BD00F013
:10079000004220F00040C10DC0F3160040F40000FC
:1007A0007F2901DA00207047962903DCC1F1960108
:1007B000C84001E096398840002AF4D04042704792
:1007C00070B5C1F30A5201F000450024C1F31301D2
:1007D00040F2FF3341F480119A4201DA002070BDEB
:1007E00040F233439A42A2F2334203DC5242FFF713
:1007F00007FD00E090402C43F1D0404270BD00F076
:10080000004230F000400AD0C10D01F56071C0F324
:10081000160042EA0151C208400711437047002008
:100820000146704730B5041E71F1000404DB4FF03F
:100830000044404264EB0101141E73F1000405DB27
:100840001C464FF00043524263EB04038B4208BF47
:10085000824230BD30B5041E71F1000404DB4FF05C
:100860000044404264EB0101141E73F1000405DBF7
:100870001C464FF00043524263EB0403994208BF09
:10088000904230BD01F0004330B421F0004150EA05
:10089000010206D00A0DA2F56072C1F31301002A0D
:1008A00002DC30BC00207047440F44EAC104C100A0
:1008B000E01830BC00EBC25000F07CB8002801DB2F
:1008C000C0F10040002901DBC1F1004181427047C5
:1008D000002801DBC0F10040002901DBC1F100412B
:1008E0008842704730B50B46014600202022012483
:1008F00009E021FA02F59D4205D303FA02F5491BEE
:1009000004FA02F52844151EA2F10102F1DC30BD03
:100910002DE9F05F0546002092469B468846064634
:10092000814640241BE02846414647462246FFF7C1
:1009300067FC53465A46C01A914110D311461846D7
:10094000224600F016F82D1A67EB01084F462246A2
:100950000120002100F00DF817EB00094E41201E88
:10096000A4F10104DFDC484631462A464346BDE88F
:10097000F09F202A04DB203A00FA02F100207047A1
:100980009140C2F1200320FA03F3194390407047CD
:10099000202A06DBCB17203A41FA02F043EAE07343
:1009A00006E041FA02F3D040C2F120029140084330
:1009B000194670470029A8BF7047401C490008BF6E
:1009C00020F00100704710B4B0FA80FC00FA0CF07F
:1009D00050EA010404BF10BC704749B1CCF12004B7
:1009E00021FA04F411FA0CF118BF01212143084344
:1009F000A3EB0C01CB1D4FEA00614FEA102042BF70
:100A0000002010BC704700EBC35010440029A4BF65
:100A100010BC7047401C490008BF20F0010010BC0A
:100A2000704710B5141E73F1000408DA401C41F140
:100A3000000192185B411A4301D120F0010010BD62
:100A40002DE9F04D92469B4611B1B1FA81F202E0D8
:100A5000B0FA80F220329046FFF78BFF04460F4633
:100A600040EA0A0041EA0B0153465A46084313D0B4
:100A7000114653EA010019D0C8F140025046FFF771
:100A8000BFFB05460E46504659464246FFF771FFEA
:100A9000084305D0012004E020463946BDE8F08D2A
:100AA0000020054346EAE0762C4337430A98630565
:100AB000E40AA0EB08000022FD0A44EA47540A3089
:100AC00002D500200146E9E7010510196941DDE979
:100AD000084500196941BDE8F04DA2E7C1F30A528B
:100AE000C1F3130140F2FF3341F480119A4202DA5C
:100AF00000200146704740F233439A42A2F233424B
:100B000002DC5242FFF77CBBFFF733BF064C074DB8
:100B100006E0E06840F0010394E8070098471034CD
:100B2000AC42F6D3FFF708FBC80E0108E80E010837
:100B300070B58C1810F8015B15F0070301D110F89F
:100B4000013B2A1106D110F8012B03E010F8016BCC
:100B500001F8016B5B1EF9D12B0705D40023521E4F
:100B60000DD401F8013BFAE710F8013BCB1A921CB7
:100B700003E013F8015B01F8015B521EF9D5A142B5
:100B8000D8D3002070BD0000014801F0A6B80000D5
:100B90001002002070B50C468869FFF7F8FD0D4D76
:100BA000064629466069FFF7B7FB314600F05EFE56
:100BB000FFF7C1FDA061606DFFF7E9FD064629461C
:100BC000206DFFF7A9FB314600F050FEFFF7B3FDA3
:100BD000606570BD0000204110B50C4C606A07F0E4
:100BE00035F96060A06A07F031F9A060206B07F06A
:100BF0002DF96061E06A07F029F92061206A07F0A9
:100C000025F9E060A069401CA06110BD0000002033
:100C100070B5044600688168C943C90716D1816868
:100C200021F00101816001F091FD054609E001F02C
:100C30008DFD401B022804D920688068C043C0078E
:100C400006D020688068C043C007F0D0002070BD87
:100C5000A06A40F01000A062E06A40F00100E0628B
:100C6000012070BD10B50146406A826A12F0500F33
:100C700005D0006A026BBDE8104008461047816A43
:100C800041F40071816201688968C1F3424107291A
:100C90000CD1017B51B9816A21F480718162816A32
:100CA000C90403D4816A41F00101816201F012F8A4
:100CB00010BD10B5406A816A41F040018162C16A8D
:100CC00041F00401C16201F007F810BD10B5406A9F
:100CD00001F001F810BD0000F8B5002604460096AA
:100CE00000688168C943C9072CD0816841F00101BF
:100CF0008160154815490068B0FBF1F000E0401E26
:100D000000900028FBD101F021FD054615E001F01F
:100D10001DFD401B022810D920688068C043C00711
:100D20000BD0A06A40F01000A062E06A40F0010021
:100D3000E06284F824600120F8BD20688068C04328
:100D4000C007E4D10020F8BD5800002040420F0049
:100D5000F0B52B4C002734F81120521C92B224F825
:100D600011200A2A01D924F811700588254801EBC1
:100D7000810200EB820334F81100224C23F810505A
:100D80000A20503404EB820203E033F8104022F8CA
:100D90001040401EC0B2F8D200230020C3F1090C5D
:100DA0000BE002EB400632F810507488A54202D9DD
:100DB00022F810407580401CC0B28445F1DC5B1CF9
:100DC000DBB2092BE9D30E4B0E4C08335089A0340B
:100DD00023F8110054F82120A3F10C05104444F825
:100DE00021006A5C521CD2B26A54082A05D3C0089A
:100DF00023F811006F5444F8217033F81100F0BD4E
:100E0000480100208C1F0020294D8EB0002785F856
:100E1000317085F86D700C973022264968460D9721
:100E2000FFF7FEF90CA8019004220CA9224801F05A
:100E30009DF8DFF888806E46688E0A2807D91C491D
:100E40001F4804F093F91A491D4800F03DF80024AA
:100E500004EB440006EB8001D1E9010214499047FC
:100E6000641CE4B2042CF3D3D8F80420444610499F
:100E70000020904795F83100C00712D0802111481A
:100E800001F05AFC68B195F86C0020F0080085F874
:100E90006C00E2680649012090470A2006F078F9C4
:100EA000CAE7A5F8447095F86C0040F00800EEE73A
:100EB0003C200020F895000810020020600100206E
:100EC000C0050020001401402DE9FC5F044691F8A4
:100ED0003100754D0E46C00775D096F86D00734F02
:100EE000DFF8CCB1DFF8CC81C007F5D0D6E904102B
:100EF000FFF70CFA8146D6E91310FFF707FA0190C5
:100F0000207FFFF737FC4246BA463B46FFF71BFB04
:100F100006460F464846FFF772FC814632463B467E
:100F20000091FFF797FC03D8688C40F0010031E096
:100F3000207FFFF71FFC464642465B46FFF703FB58
:100F400002460B4648460099FFF76CFC11D8A07E7C
:100F5000FFF710FC3246584BFFF7F5FA02460B46F6
:100F600048460099FFF776FC03D8688C20F005000E
:100F700010E0A07EFFF7FEFB3246504BFFF7E3FA8E
:100F800002460B4648460099FFF74CFC03D8688C94
:100F900040F00400688494F82200FFF7EBFB42461F
:100FA0005346FFF7D0FA06460F460198FFF727FC95
:100FB0008A46814632463B46FFF74CFC04D8688C93
:100FC00040F0020035E063E094F82200FFF7D2FB26
:100FD000464642465B46FFF7B6FA02460B4648468F
:100FE0005146FFF71FFC12D894F82000FFF7C2FB10
:100FF0003246314BFFF7A7FA02460B4648465146A8
:10100000FFF728FC03D8688C20F00A0011E094F860
:101010002000FFF7AFFB3246284BFFF794FA024659
:101020000B4648465146FFF7FDFB03D8688C40F05D
:1010300008006884224E8021304601F07DFB044682
:101040001021304601F078FB44EA4000C1B21D4C4B
:10105000012921D001220121204601F072FB8021CB
:10106000304601F069FB0028688C17D020F0200082
:10107000688415484FF48061B0F8580088B1688CD6
:1010800078B1002202B02046BDE8F05F01F059BB04
:10109000688C20F00F00CCE70022DCE740F0200055
:1010A000E6E70122EEE70000D01600209999B93F4B
:1010B0009999A93F9A9999999999A9BF9999B9BF6D
:1010C0000014014000180140C0050020FEE70000A8
:1010D00005F082F9034800F007F80A2006F058F8F6
:1010E000F6E700003C2000202DE9F05F0446674849
:1010F000674E684DC1884FF0000A01290CD00022CC
:101100004021654801F01DFBA5F894A085F86DA06D
:10111000C5F88CA0BDE8F09F8046B0F84A00FFF704
:1011200029FBB14632465D4BFFF70DFA06460F46E6
:101130002069FFF764FB32463B46FFF773FB01D89B
:10114000012700E000274646B8F84E00FFF712FBE3
:10115000CB464A46514BFFF7F6F980468946E06C8C
:10116000FFF74DFB42464B46FFF75CFB01D80120E1
:1011700000E00020074395F8A00008D040F02000D0
:1011800085F8A000B6F8480040F0200007E020F005
:10119000200085F8A000B6F8480020F02000A6F84E
:1011A0004800B6F94C00FFF7D4FADFF8F0905A4641
:1011B0004B46FFF7C8F9074688466069FFF71FFBF3
:1011C0003A464346FFF746FB0BD895F8A00020F0BF
:1011D000200085F8A000B6F8480020F02000A6F80E
:1011E0004800B6F85000FFF7C5FA5A464B46FFF7DD
:1011F000AAF9074688462069FFF701FB3A464346AD
:10120000FFF728FB14D2D4E90410FFF761FB03D2E7
:1012100094F8A200C10718D095F8A00020F0200093
:1012200085F8A000B6F8480020F02000A6F8480095
:1012300095F8A000800617D4A5F894A0BDE8F05F4B
:1012400000224021144801F07CBA40F0010084F8EB
:10125000A20095F8A00040F0200085F8A000B6F8A4
:10126000480040F02000E1E7B5F89400B6F85210CD
:1012700088427FF64FAF01224021074801F061FA12
:101280004FF4FA60A5F8940044E70000C005002080
:101290009A9999993C200020001801409999B93FEA
:1012A00070B5044690F830000E46010701D4C00620
:1012B00007D560692062E061A16BBDE87040002045
:1012C000084730784FF00005000712D52169A06962
:1012D000FFF7F4FA05D894F8300020F0200084F8E5
:1012E000300094F83000410603D4658620F00200F7
:1012F0000AE0608EB0F5967F08D94FF49B70608647
:1013000094F8300040F0020084F8300094F8300087
:10131000010701D441060FD4A16B0020884794F83F
:101320003000A562658620F0030084F83000E56097
:1013300060692062E06170BD94F82F10B4F900205C
:10134000914226DB84F82F50A5863146204603F0D3
:1013500069F81C49A06A884202DA1B49884207D30F
:10136000658694F8300020F0020084F83000A56211
:1013700020892188484301B294F82E004843FFF7A2
:10138000E8F9124A124BFFF7DEF8FFF719FA20814D
:1013900070BD400707D50020A16B30348847207806
:1013A00020F001000BE0A08EB4F908108842F2DAB8
:1013B0000120A16B30348847207840F00100207074
:1013C00070BD00000000A0400000A0C07B14AE472C
:1013D000E17A843F0200C2EB021001EB800004D0EE
:1013E000034A8263A031FFF75BBF024A8A63F9E7D1
:1013F0004D3F0008C55700082DE9F04F87B005465E
:1014000000200C460090019001462846FFF7A0FC02
:10141000ADF800000121A81CFFF79AFCADF802000E
:101420000221281DFFF794FCADF804000321A81D3C
:10143000FFF78EFCADF80600BDF90000FFF789F953
:10144000EB4AEC4BFFF77FF8EB4AEC4BFEF7D4FF8F
:10145000FFF718FA8146BDF90200FFF77AF9E44A6E
:10146000E44BFFF770F8E44AE44BFEF7C5FFFFF7E3
:1014700009FADFF88CA30290BAF91200FFF769F9B4
:10148000E04AE14BFFF75FF8074650468846B0F95F
:101490001400FFF75EF9DFF874B3DD4B5A46FFF72F
:1014A00052F80022DB4BFEF7A7FF05460E464846E2
:1014B000FFF7A5F92A463346FFF745F83A46434673
:1014C000FEF79AFFFFF7DEF90AF188010490D24B8C
:1014D00004AAA1F1180004F089F85046B0F95A00A6
:1014E000FFF737F9C74AC84BFFF72DF807465046B4
:1014F0008846B0F95C00FFF72CF95A46C44BFFF759
:1015000022F80022C34BFEF777FF05460E460298ED
:10151000FFF775F92A463346FFF715F83A46434672
:10152000FEF76AFFFFF7AEF9BB4B0AF1E801029044
:101530005B1C02AAA1F1180004F058F8DFF8D8B239
:101540000BF1180BDBF80000FFF759F90646606A4B
:101550000F461434FFF753F9AA4AAB4BFEF7F3FFDB
:10156000054632463B460091FEF7EDFF8046894630
:1015700028460022A74B0099FEF7E2FF06460F46D9
:1015800006910498FFF73BF93B463246FEF7DBFF36
:1015900042464B46FEF730FFFFF774F92060E06EDD
:1015A000FFF72DF902460B4628460099FEF7CBFFC0
:1015B00005460F46DDF818800298FFF720F94346EC
:1015C0003246FEF7C0FF2A463B46FEF715FFFFF7FF
:1015D00059F9A066BAF94600BAF944600AF116054D
:1015E000801BFFF7A8F801468C48FEF7C7FE82462D
:1015F0003046FFF7AEF88A4A8A4BFEF7A4FF06464C
:1016000006910F46BDF90400FFF7A3F84FF06632CC
:10161000854BFEF798FF6FF00B02FFF775F84FF060
:101620003332824BFFF701F83B463246FEF785FF27
:10163000804689465046FFF7E2F8074642464B4649
:101640000091FEF780FFFFF71DF906998246B0462C
:101650000E46BDF90600FFF77CF84FF06632724B7C
:10166000FEF771FF6FF00B02FFF74EF84FF03332C9
:101670006E4BFEF7DAFF42463346FEF75EFF024648
:101680000B4638460099FEF75EFFFFF7FBF8039024
:10169000B5F90000FFF75DF8614A624BFEF753FFB2
:1016A00007468946B5F90200FFF753F8574A584BE9
:1016B000FEF749FF0022574BFEF79EFE064688467E
:1016C0005046FFF79CF832464346FEF73CFF4B4638
:1016D0003A46FEF791FEFFF7D5F849490590B83133
:1016E000ABF1160305AAA1F1180003F07FFFB5F9CD
:1016F0004800FFF72EF84A4A4A4BFEF724FF0646F9
:101700008846B5F94A00FFF724F8404A404BFEF7F7
:101710001AFF00223F4BFEF76FFE05460F46039867
:10172000FFF76DF82A463B46FEF70DFF434632466B
:10173000FEF762FEFFF7A6F83D490390ABF11503F3
:1017400003AAA1F1180003F051FF5D46DBF8040085
:10175000FFF755F807468846E06CFFF750F8294A2E
:10176000294BFEF7F0FE8B4606463A464346FEF707
:10177000EAFE81468A46304659460022254BFEF74E
:10178000DFFE0746009188460598FFF738F8434684
:101790003A46FEF7D8FE4A465346FEF72DFEFFF7BF
:1017A00071F88046E063606FFFF729F832465B46C8
:1017B000FEF7C9FE8A46009981463E460F460398C9
:1017C000FFF71DF832463B46FEF7BDFE4A4653463C
:1017D000FEF712FEFFF756F8014620672068C5E9BC
:1017E0000008A06E6167E06607B0BDE8F08F0000FA
:1017F0005839B4C876BEAF3F280F0BB5A679F93F6C
:10180000C00500207B14AE47E17A843F2D431CEBDA
:10181000E2361A3F0000F03F4001002000007A4409
:101820009A9999999999B93F66660A403333E33F8B
:10183000D8060020014800F0DBBC00004002002078
:1018400030B590F840500124AC40C56B6C60046822
:1018500063604368102B036803D099600068C2601E
:1018600030BD9A600068C16030BD00002DE9F041D4
:101870000C460646FEF78BFF2149054616F1FF4F41
:101880008846304619D3FEF741FDFEF780FF074634
:101890001C48864206D341463046FEF7E5FCFEF77B
:1018A00076FF00E00120AF421ADBA8421EDCAC420A
:1018B0001CDC681E84421EDB1EE0FEF7D5FCFEF732
:1018C00066FF07464046464506DB01463046FEF7C2
:1018D0001DFDFEF75CFF01E04FF0FF30AF4201DD80
:1018E0003C4609E0A84201DBAC4201DA2C4603E0A9
:1018F000681C844200DD04462046BDE8F0810000FB
:10190000CDCC4C3ECDCC4CBE7047000070B50446EB
:101910000D46B0F90000FEF70EFF2968FEF7D8FF6C
:1019200001D2002028E034F9060FFEF704FF2968F1
:10193000FEF7CEFF01D201201EE034F9060FFEF7BC
:10194000FAFE2968FEF7C4FF01D2022014E034F940
:10195000060FFEF7F0FE2968FEF7BAFF01D203205A
:101960000AE034F9060FFEF7E6FE2968FEF7B0FF3D
:1019700001D2042000E00520184A0021184B5578B8
:10198000A84203D0A3F89610A3F8981050701078CE
:10199000144D10B101281FD110E0A088B3F8966053
:1019A00000EBC00404EB0010B6EB800F01D801225D
:1019B0000AE0A3F898100120107070BDB3F89800E9
:1019C0006488A04206D800222846BDE8704008215D
:1019D00000F0B7BEA3F89610117070BD9001002002
:1019E0003C2000200018014072B6FEE790F8A010DD
:1019F000890713D40A4A0B4B118AC3F89010D0F808
:101A0000901000290AD0D0F88C30C1EB0111B3EB53
:101A1000810F03D30021C0F88C10D18070470000E3
:101A2000C00500203C2000202DE9F041194C1A4D42
:101A3000E0882978884207D000266680012805D0F2
:101A400001206080A0792870BDE8F0811349B4F8C6
:101A50006400088003F0C2FE02F070FF104F386986
:101A6000FEF7CDFE02460B460EA004F03BF8F86CE4
:101A7000FEF7C5FE02460B4611A004F033F817A08E
:101A800004F030F81C48C7F89C60807887F879002B
:101A9000D8E70000C0050020000000203A01002027
:101AA0003C2000202054656D70657261747572650C
:101AB0002053563A2025302E3266A1E60D0A00004A
:101AC0002048756D69646974792053563A20253031
:101AD0002E3266252572680D0A0000002D2D2D2D51
:101AE0002D2D2D2D2D2D2D2D2D2D2D2D2D2D2D2D26
:101AF0002D2D2D2D0D0A000040000020F8B50026E8
:101B00000446009690F8240001280BD0012084F8A8
:101B100024002046FFF77CF82046FFF7DDF8070099
:101B200002D050E00220F8BDA06A20F4885040F0B6
:101B30000200A062022000F0CDFE25490968B1FB39
:101B4000F0F0400000E0401E00900028FBD120682B
:101B5000816841F00801816000F0F8FD054608E069
:101B600000F0F4FD401B0A2803D9206880680007B4
:101B700015D4206880680007F2D42068816841F09D
:101B80000401816000F0E2FD054612E000F0DEFD98
:101B9000401B0A280DD920688068400709D5A06A33
:101BA00020F0020040F01000A06284F824600120C0
:101BB000F8BD206880684007E8D4A06A20F00200E1
:101BC00040F00100A06284F824603846F8BD0000AF
:101BD0005800002070470000F8B50023009390F8EB
:101BE00024201C46012A12D0012280F824204A68B1
:101BF0001F26072A0DD205686F6B521E02EB820268
:101C00009640B7430E68964037436F6319E0022051
:101C1000F8BD05680D2A0AD22F6BD21F02EB820293
:101C20009640B7430E68964037432F6309E0EF6A4A
:101C30000D3A02EB82029640B7430E689640374356
:101C4000EF620A68072605680A2A0AD3EF680A3A8B
:101C500002EB42029640B7438E6896403743EF60EE
:101C600008E02F6902EB42029640B7438E68964027
:101C700037432F610A68102A01D0112A20D1124D52
:101C80000268AA4217D195682D0219D4956845F4C7
:101C9000000595600968102912D10C490C4A0968A1
:101CA000B1FBF2F101EB8101490000E0491E009116
:101CB0000029FBD104E0816A41F020018162012307
:101CC00080F824401846F8BD002401405800002048
:101CD00040420F0070477047704770B50446006877
:101CE00006684568A90625D5B10723D5A16AC906A6
:101CF00003D4A16A41F40071A1628168C1F3424139
:101D0000072910D1217B71B9416821F02001416080
:101D1000A06A20F48070A062A06AC00403D4A06A04
:101D200040F00100A0622046FFF7D4FF21686FF069
:101D30001200086028062ED570072CD5A06AC006B0
:101D400003D4A06A40F40050A06220688168C1F307
:101D50000231072909D04168490515D48168C1F3CA
:101D60004241072910D1217B71B9416821F08001DE
:101D70004160A06A20F48050A062A06AC00503D42C
:101D8000A06A40F00100A0622046FFF723FF21680F
:101D90006FF00C00086068060CD5F0070AD0A06A46
:101DA00040F48030A062204600F096F821686FF081
:101DB0000100086070BD00002DE9F04104004FF003
:101DC00000057FD0A06A002628B9E66284F8246066
:101DD000204600F083F82046FEF71AFFA16AC906E4
:101DE00000D420B1A06A40F01000A0626AE0A16AAD
:101DF00021F4885141F00201A162334923688B42EA
:101E0000E16904D1B1F5402F01D14FF40021277BC6
:101E10004FF4807C41EA470261680A43A16861454A
:101E200008D0012906D0002194F814E0BEF1010F7A
:101E300002D00AE06146F7E7C7B1A76A47F020077A
:101E4000A762E76A47F00107E7625F6827F469471E
:101E50000F435F6021688B681C4F3B4013438B60CE
:101E6000A16861450BD0012909D00CE0DFF860E0E2
:101E7000A7690EEB47370F4347F40061E5E7218A76
:101E80000D05A5F580152168CB6A23F470032B435B
:101E9000CB62216889680F4B1940914208D1E662F4
:101EA000A16A21F0020141F00101A162BDE8F081C7
:101EB000A06A20F0020040F01000A062E06A40F04A
:101EC0000100E0620120F1E7003C0140FDF7E1FF85
:101ED00000E0FFFFFE0E1FFF7047000070B586B0E8
:101EE00000240646009401940294039400681A4961
:101EF00088422ED11949886940F400708861886948
:101F000000F400700490886940F0040088618869DA
:101F1000694600F00400049017200090032001900F
:101F20000F4800F011FB104D0E48C5E90004802059
:101F3000C5E9024040002861800068612020C5E9B1
:101F40000604284600F078FA08B1FFF74DFD356227
:101F50006E6206B070BD0000002401400010024017
:101F60000008014008000240400200202DE9F0472F
:101F7000894604463B4900683B4F0E1D9046884207
:101F800001D0B84207D1306810F4702F03D001257A
:101F90002846BDE8F08794F8240001280CD00120E1
:101FA00084F824002046FEF797FE05004FF000015C
:101FB00004D084F82410EBE70220EAE7A06A40F698
:101FC0000162904340F48070A0622068B84218D14A
:101FD000326812F4702F14D0A06A40F48010A0620E
:101FE0003068400505D5A06A20F4005040F48050C8
:101FF000A062A06AC0040AD5E06A20F00600E06290
:1020000006E0A26A22F48012A2624068E9E7E16277
:1020100084F82410216A15488862216A1448C8622D
:10202000216A1448086321686FF002000860206884
:10203000816841F480718160216843464A464C3191
:10204000206A00F037FA20688168C1F3424107290D
:10205000816803D041F48011816099E741F4A001C7
:10206000FAE700000024014000280140650C000848
:10207000CD0C0008B30C000810B590F82110002218
:10208000022905D00421816380F82020012010BDA1
:1020900001680B6823F00E030B6001680B6823F0E6
:1020A00001030B6090F84030012404FA03F1C36B84
:1020B000596080F8214080F82020104610BD0000B3
:1020C0002DE9F05F90F821100024022903D00421AB
:1020D0008163012485E001680A6822F00E020A602B
:1020E00001680A6822F001020A603F4E3E4FB215B5
:1020F000DFF8F4C0DFF8F090DFF8ECA0DFF8E8B02C
:10210000DFF8E4E00168783F13011502ACF1640CDC
:10211000A9F15009AAF13C0AABF1280BAEF1140E5B
:102120004FF48018B14227D9B9420ED0614512D080
:1021300049451DD0514518D0594518D0714501D198
:10214000424615E0294EB14201D1012210E0274E4E
:102150001436B14201D110220AE0244E2836B14291
:1021600006D0224A3C32914201D11A4600E02A466A
:102170001E49091F0A602BE0B94213D0614517D0F0
:10218000494522D051451DD059451DD0714501D139
:1021900042461AE0B14202D14FF0807215E0134E70
:1021A000B14201D1012210E0104E1436B14201D1EA
:1021B00010220AE00D4E2836B14206D00B4A3C32BE
:1021C000914201D11A4600E02A46074980394A6007
:1021D000012180F82110002180F82010416B01B10D
:1021E00088472046BDE8F09F800002400804024076
:1021F0002DE9F05FC16B0B6801680A68046C4FF051
:10220000040808FA04F8844D844E854FDFF814C2A0
:10221000DFF81492DFF814A2DFF814B2DFF814E24A
:1022200018EA030F65D05FEA427862D50A68920621
:1022300003D40A6822F004020A60DFF8F0814FF448
:102240008062016808F1140813011402414524D981
:10225000A9420DD0B1420FD0B9421AD0614515D074
:10226000494515D0514501D1120312E0594501D11C
:1022700004220EE0714501D140220AE06D4D143573
:10228000A94206D06B4A2832914201D11A4600E099
:1022900022466749091F0A6029E0A94213D0B142CA
:1022A00015D0B94220D061451BD049451BD05145BE
:1022B00002D14FF4800217E0414502D14FF0806215
:1022C00012E0594501D104220EE0714501D14022AE
:1022D0000AE0584D1435A94206D0564A2832914298
:1022E00001D11A4600E022464B4908394A60C16ACA
:1022F00071E04FF0020808FA04F818EA030F70D0F2
:102300005FEA82786DD50A68920606D40A6822F0E0
:102310000A020A60012180F82110DFF810814FF4D1
:102320000072016808F1140813011402414524D910
:10233000A9420DD0B1420FD0B9421AD0614515D093
:10234000494515D0514501D1120312E0594501D13B
:1023500002220EE0714501D120220AE0354D1435EC
:10236000A94206D0334A2832914201D11A4600E0F0
:1023700022462F49091F0A6029E0A94213D0B14221
:1023800015D0B94220D061451BD049451BD05145DD
:1023900002D14FF4001217E0414502D14FF0007214
:1023A00012E0594501D102220EE0714501D12022EF
:1023B0000AE0204D1435A94206D01E4A2832914227
:1023C00001D11A4600E02246134908394A6000212B
:1023D00080F82010816A00291CD0BDE8F05F084712
:1023E000FFE70825A5401D4214D0120712D50A6840
:1023F00022F00E020A6090F84020C36B012101FA1E
:1024000002F25A60816380F82110002180F82010C8
:10241000016BE0E7BDE8F09F080002401C000240AD
:102420003000024044000240580002406C0002406C
:10243000080402401C04024030B560B11A4B016828
:102440001422994209D2194B0B44B3FBF2F29200C9
:102450000264174A0AE0012030BD134B5B420B4473
:10246000B3FBF2F2920002640F4A083AC2630222FE
:1024700080F821200A6843F6F0739A43F0E90134AA
:102480002343D0E902452C43234304692343446991
:1024900023438469234313430B60002141630122DA
:1024A00042770177084630BD08040240F8FFFDBFBF
:1024B0000000024070B5044690F820000025012875
:1024C0000CD0012084F8200094F821600020012E17
:1024D00006D084F820000225284670BD022070BD79
:1024E000022684F82160A0632068066826F00106B1
:1024F00006602046FFF7A4F9E06A0028206801681A
:1025000002D041F00E0106E021F0040101602068D4
:10251000016841F00A0101602068016841F0010191
:102520000160D9E770B5044600F010F90546601C5B
:1025300002D004480078044400F008F9401BA0428F
:10254000FAD370BD4C0000202DE9F84FDFF8C091A0
:102550000024A9F1040B23464FF00F0809F1040AE7
:10256000ABF1040ECCE00127A7403A40BA4272D149
:10257000DFF8A0C14D68A5EB0C0665452BD00DDC3E
:10258000032D34D005DC35B3012D19D0022D2FD108
:102590001BE0112D16D0122D2AD119E0B6F5881F97
:1025A00019D006DCB6F5803F15D0B6F5801F1FD1D7
:1025B00011E0B6F5001F0ED0B6F5041F18D10AE0E1
:1025C000CB6815E0CB681B1D12E0CB6808330FE029
:1025D000CB680C330CE08B682BB1012B4FF0080358
:1025E00003D0476104E0042302E0076100E0002318
:1025F000FF2A01D8064601E000F104064FEA8405EF
:1026000001D9A5F12005376808FA05FC27EA0C076F
:1026100003FA05F547EA050737604D68ED006ED50A
:102620003D4DAE6946F00106AE61AD6924F003068A
:1026300005F001050095394D7719BE68A5072D0FE6
:1026400008FA05FC26EA0C06DFF8D4C0604503D181
:102650004FF0000C25E052E0DFF8C8C0604502D121
:102660004FF0010C1DE0DFF8C0C0604502D14FF013
:10267000020C16E0DFF8B4C0604502D14FF0030C45
:102680000FE0DFF8ACC0604502D14FF0040C08E069
:10269000DFF8A0C0604502D14FF0050C01E04FF01B
:1026A000060C0CFA05FC4CEA060CC7F808C04D688D
:1026B000D9F80060ED024D4601D5164300E096437F
:1026C0002E604D68DAF80060AD02554601D516431C
:1026D00000E096432E604D68DBF80060AD035D4678
:1026E00001D5164300E096432E604D68DEF8006089
:1026F000ED03754601D5164300E096432E60641C39
:102700000A6832FA04F57FF42EAFBDE8F88F0000B6
:1027100008040140000011100010024000000140B8
:1027200000080140000C014000100140001401406D
:1027300000180140001C01408068084000D00120C2
:1027400070470AB1016170470904FBE701488068DE
:10275000704700004C000020024881680278114454
:10276000816070474C000020074810B5016841F0B7
:1027700010010160032000F095F80F2000F006F82A
:1027800000F03EF8002010BD0020024000B50146D8
:1027900087B00022192000F065F8192000F054F8E5
:1027A0001348816941F400618161806905A900F4E1
:1027B00000600690684600F0F9F900F027FA0D492C
:1027C0000D4AB0FBF1F10D48491E0260416040F234
:1027D000E7320021C0E90321816000F06FFF10B1F2
:1027E000012007B000BD054800F0E4FFF9E7000054
:1027F0000010024040420F00002C0140580400200D
:102800000F4808B5816941F001018161816901F0DA
:1028100001010091C16941F08051C161C06900228C
:1028200000F0805000900F21901E00F01BF8054929
:10283000486820F0E06040F00070486008BD00008B
:102840000010024000000140002809DB00F01F02D8
:10285000012191404009800000F1E020C0F8001102
:1028600070470000F0B40E4B1B68C3F30223C3F1A2
:102870000704042C00D904241D1D072D01D20023B8
:1028800000E0DB1E012606FA04F56D1E0D409D409A
:102890009E40761E164045EA0601F0BC03F032B9B0
:1028A0000CED00E0064A00F0070110684FF6FF0348
:1028B000184040EA012003490843106070470000B7
:1028C0000CED00E00000FA050149012008627047A4
:1028D00000000E4210B501460020284C04292FD0DC
:1028E0000BDC012930D0022929D100F08FF9616871
:1028F000C1F38131491C49001FE0082920D010296B
:102900001DD161682268D20119D51D48C1F38342E7
:10291000C903805C0AD56168194AC1F34041921E1F
:10292000515C184AB2FBF1F1484301E016494843B3
:102930006168490203D440000321B0FBF1F010BDEF
:10294000BDE8104000F072B9216AC1F30122012AEA
:1029500003D1890701D5D00310BD022A05D1616AD0
:10296000890702D549F6404010BD032AFCD12168F1
:102970008903F9D54FF2244010BD00000010024039
:10298000D093000800127A0000093D002DE9F843B9
:1029900004460078344FC00752D0F8690025C000C3
:1029A00008D4F86940F08050F861F869012500F01A
:1029B000805000902D480168C90511D401688046F7
:1029C00041F480710160FFF7C1FE064604E0FFF7A5
:1029D000BDFE801B642822D8D8F80000C005F6D5BB
:1029E000386A10F4407020D0A18801F4407181420F
:1029F0001BD0386A1E49012220F440700A60002270
:102A00000A603862C00710D0FFF7A0FE064641F208
:102A1000883807E0FFF79AFE811B414502D9032061
:102A2000BDE8F883386A8007F4D5386A616820F415
:102A30004070084338621DB1F86920F08050F86199
:102A40002078800705D57868A16820F440400843C5
:102A500078602078C00605D57868616920F4800028
:102A6000084378600020DBE700100240007000405F
:102A7000400442422DE9F0470D46040067D0DFF8DC
:102A80001881D8F8000000F00700A8420CD2D8F84E
:102A9000001021F007012943C8F80010D8F8000001
:102AA00000F00700A84252D120683C4E810712D5A1
:102AB000400703D5706840F4E0607060207800073C
:102AC00003D5706840F4605070607068A16820F0B1
:102AD000F000084370602078C00727D060680128A4
:102AE00010D03168022810D0890700292FDA7168C8
:102AF00021F0030101437160FFF728FE074641F210
:102B000088390CE031688903EFE78901EDE7FFF7C9
:102B10001DFEC11B494502D90320BDE8F08770683E
:102B2000616800F00C00B0EB810FF0D1D8F8001014
:102B3000404601F00701A9420BD9016821F00701C5
:102B400029430160006800F00700A84201D001207D
:102B5000E3E72078400705D57068E16820F4E0607D
:102B6000084370602078000706D57068216920F45A
:102B7000605040EAC100706000F058F87168084A7F
:102B8000C1F30311515CC84006490860064800685B
:102B9000FFF7FCFD0020C0E70020024000100240CB
:102BA000E093000858000020500000200F2202602F
:102BB0000C4A536803F003034360536803F0F003C7
:102BC0008360536803F4E063C36052684FF4E063CA
:102BD00003EAD20202610448006800F007000860BE
:102BE00070470000001002400020024004480549E0
:102BF00000684968044AC1F30221515CC84070472B
:102C00005800002000100240F093000804480549D5
:102C100000684968044AC1F3C221515CC84070474A
:102C20005800002000100240F09300080E4B596835
:102C30000E4801F00C02042A11D0082A0FD10C48CA
:102C4000C1F38342C903805C0AD55968084AC1F3BD
:102C50004041921E515C054A5043B0FBF1F0704771
:102C600004494843704700000010024000127A00F7
:102C7000BE93000800093D002DE9F84F04006FD015
:102C80002078BE4DC00747D06868C0F38100012896
:102C900007D06868C0F38100022809D16868C003C2
:102CA00006D52868800337D560680028E7D033E070
:102CB0006068B0F5803F0BD010B1B0F5A02F11D0F7
:102CC000286820F480302860286820F4802002E002
:102CD000286840F480302860606888B1FFF736FDCE
:102CE000064609E0286840F480202860F0E7FFF7F6
:102CF0002DFD801B642873D828688003F7D50BE06E
:102D0000FFF724FD064604E0FFF720FD801B642842
:102D1000F1D828688003F7D42078DFF86482800730
:102D20004FF0010A4FF0000939D5686810F00C0F18
:102D300007D06868C0F38100022809D16868C00321
:102D400006D42868800714D52069012808D110E02E
:102D50002069B0B1C8F800A0FFF7F8FC064605E00E
:102D600007E1FFF7F3FC801B0228C4D8286880071E
:102D7000F7D52868616920F0F80040EAC1002860B2
:102D80000DE0C8F80090FFF7E1FC064604E0FFF70D
:102D9000DDFC801B022823D828688007F7D4207820
:102DA00000072CD57748A169D9B1C0F800A0FFF77A
:102DB000CDFC064604E0FFF7C9FC801B02280FD8B3
:102DC000686A8007F7D570484FF4FA510068B0FB85
:102DD000F1F0009000BF0098411E0091FAD20EE081
:102DE0007CE0C0F80090FFF7B1FC064604E0FFF776
:102DF000ADFC801B022871D8686A8007F7D4207860
:102E000040075BD5E8690027C00008D4E86940F0B6
:102E10008050E861E869012700F0805000905B482D
:102E20000168C90511D40168834641F480710160CD
:102E3000FFF78CFC064604E0FFF788FC801B642843
:102E40004CD8DBF80000C005F6D5E06801280AD0B0
:102E500008B1052813D0286A20F001002862286AEA
:102E600020F0040002E0286A40F001002862E068D7
:102E700041F2883B88B1FFF769FC064609E0286A01
:102E800040F004002862EEE7FFF760FC811B594523
:102E90005BD8286A8007F7D50BE0FFF757FC06469A
:102EA00004E0FFF753FC811B59454ED8286A800780
:102EB000F7D41FB1E86920F08050E861E069A8B359
:102EC0006968C1F38101022946D00228484606D02C
:102ED000C8F86000FFF73AFC044639E035E04746A1
:102EE000C8F86000FFF732FC064604E0FFF72EFC4E
:102EF000801B022829D828688001F7D4206AB0F501
:102F0000803F05D16868A16820F4003008436860FC
:102F1000D4E908010843696821F474110843686022
:102F2000C7F860A0FFF712FC044605E023E0FFF7B6
:102F30000DFC001B022808D828688001F7D51AE08C
:102F4000FFF704FC001B022802D90320BDE8F88F1C
:102F500028688001F4D40EE00128F7D06868226A5E
:102F600000F48031914204D1616A00F4701088420B
:102F700001D00120EAE70020E8E70000001002404D
:102F8000000042428004424258000020007000408D
:102F9000F8B505004FF0000016460C46009006D02C
:102FA0002CB100226946284600F019F808B101202A
:102FB000F8BD287B2070E87BE070697B6170A97B9D
:102FC000A17056B101F031FEE070607801F02DFE85
:102FD0006070A07801F029FEA0700020F8BD2DE9F6
:102FE000F04791460C465FEA00084AD084B3D8F80F
:102FF00000004068400744D4404601F0B3FE4FF45F
:103000006162B0FBF2F10546B0FBF2F002FB105337
:103010003C20B3FBF0F36370B5FBF2F302FB1352F9
:10302000B2FBF0F300FB1320A070182931D3182055
:10303000B1FBF0F6B1FBF0F200FB1210207040463D
:1030400001F089FE411C04D0A84202D9471B02E0CE
:1030500017E04FF0FF37A6EB061000EB4000C0EB87
:10306000001005EBC0152946404601F0CAFE40B9E4
:10307000781C01D0791900E03946404601F0ADFED8
:1030800010B10120BDE8F0873146404601F0D8FD7F
:1030900000E02170B9F1000F0BD0207801F0C5FDE0
:1030A0002070607801F0C1FD6070A07801F0BDFD76
:1030B000A0700020E6E7000070B5040003D0607C3B
:1030C000002610B105E0012070BD2674204600F0F6
:1030D0003DF802206074204600F00CF9042550BB36
:1030E000204601F004FE30BB2068416821F0070152
:1030F0004160A06820B11448016821F0010101601D
:103100001148001F0168A26821F460711143016039
:103110006068411C04D10120FFF7DCFB58B1401E60
:103120002268C0F303419160216880B2C8602046E4
:1031300001F0F7FD08B16574C5E7E673012060731F
:10314000A0736074002070BD306C004008B500684A
:10315000084988420DD1FFF7B7FB0748C16941F024
:103160000061C161C069054900F000600090012064
:10317000086008BD00280040001002403C044242A4
:103180002DE9F0410D4604003BD0C5B3207C012859
:103190003AD04FF0010884F8108002206074E8787B
:1031A00072B301F039FDE073687801F035FD6073AA
:1031B000A87801F031FDA073C2B2617BE07B01F021
:1031C000E1FD20732870204601F0CCFD4FF46161D1
:1031D000B0FBF1F1002518292DD91822B1FBF2F12D
:1031E000A1EB011101EB4101C1EB011100EBC11693
:1031F0003146204601F005FE0427C8B90BE000E087
:1032000004E00120BDE8F0810220FBE7E07368786C
:103210006073A878CFE7204601F09DFD411C0AD0DD
:10322000B04208D206490144204601F0D6FD10B153
:1032300067742574E5E784F8118025740020E1E7C0
:10324000805101002DE9F0410D46040024D01DB34A
:10325000207C012823D04FF0010884F81080022040
:103260006074F2B1287801F0D7FC4FF4616100FB83
:1032700001F6687801F0D0FCC0EB001006EB800688
:10328000A87801F0C9FC35182946204601F0B9FD9F
:103290000026042718BB10E00120BDE8F0810220C1
:1032A000FBE729784FF4616041436878C0EB001078
:1032B00001EB8000A9784518E6E72068416821F015
:1032C00005014160204601F046FD411C0AD0A8429C
:1032D00008D207490144204601F07FFD10B1677410
:1032E0002674D9E784F8118026740020D5E7000001
:1032F0008051010070B504000AD02068416821F0B7
:1033000008014160FFF722FA05464FF47A7608E09B
:10331000012070BDFFF71AFA401BB04201D903200B
:1033200070BD206840680007F4D5002070BD70B5FE
:10333000040009D0606A002540B125616561A5627D
:1033400094F8510040B10CE0012070BD6068B0F508
:10335000827FF4D0E561F2E784F85050204600F017
:103360003FF8022084F851002068016821F04001F4
:103370000160A088218900F4827001F404410843AF
:10338000A18901F400610843217C01F00201084396
:10339000217D01F001010843218B01F400710843F4
:1033A000217F01F03801084394F8201001F08001DA
:1033B0000843218D01F40051084321680860A06989
:1033C000042101EA1040216848602068C16921F4A5
:1033D0000061C1616565012084F85100002070BD65
:1033E00030B585B0002400940194029403940068E1
:1033F0001549884225D11548C16941F48041C16110
:10340000C16901F480410491816941F00801816141
:1034100080690F4D00F0080004904FF420400090A8
:10342000022001900320039069462846FFF78CF89C
:103430004FF48040CDE90004694628460294FFF726
:1034400083F805B030BD0000003800400010024095
:10345000000C01402DE9FF4F81B0044690F8500068
:10346000012500270E9E9846934601280FD0AA46B4
:1034700084F850A0FFF76AF994F851108146626809
:10348000404601290DD0B2F5827F08D103E0022029
:1034900005B0BDE8F08FA2680AB9042901D002275F
:1034A000C7E00299002968D0BBF1000FFBD0B8F14A
:1034B000000FF8D094F85110042902D0052184F8A7
:1034C000511000216165C4F838B0A4F83E80A4F81A
:1034D0003C80029A2263A4F83680A4F834802164E8
:1034E000616421680A68520603D40A6842F0400207
:1034F0000A60E168B1F5006F616803D0E1B30128AB
:1035000043D07AE009B1012838D1206B21680088C6
:10351000C860206B801C2063E08E401EE0862DE09A
:103520002068816889070DD5E18E59B1012D09D137
:10353000216B0988C160206B801C2063E08E401ED7
:10354000E086002520688168C9070BD0E18F49B16A
:10355000C068A16B0880A06B801CA063E08F401E38
:10356000E0870125FFF7F2F8A0EB0900B04205D390
:10357000701C03D003275AE007E056E0E08E0028D5
:10358000CED1E08F0028CBD13DE0206B21680078C0
:103590000873206B401C2063E08E401EE0862CE008
:1035A0002068816889070DD5E18E59B1012D09D1B7
:1035B000216B09780173206B401C2063E08E401E54
:1035C000E086002520688168C9070BD0E18F49B1EA
:1035D000C068A16B0870A06B401CA063E08F401E08
:1035E000E0870125FFF7B2F8A0EB0900B04202D353
:1035F000701C02D0BEE7002EBCD0E08E0028CFD1D8
:10360000E08F0028CCD14A463146204601F042FDE9
:1036100018B10127202060650BE0A06818B9206868
:10362000C16880680090606D08B1012701E084F8EE
:1036300051A0002084F85000384629E770477047B1
:1036400070B590F83C20012A2CD0012580F83C5020
:10365000022280F83D2002685368946823F07006C7
:103660000B6833435360104B02689A420ED00F4BE5
:103670009A420BD0B2F1804F08D00D4B9A4205D040
:103680000C4B9A4202D00C4B9A4204D1496824F068
:1036900080031943916080F83D50002180F83C1070
:1036A000084670BD022070BD002C0140003401406E
:1036B0000004004000080040000C004010B5040069
:1036C00003D094F83D0010B107E0012010BD0020A8
:1036D00084F83C00204600F01FF8022084F83D00EA
:1036E000211D206801F0C0FE012084F8460084F806
:1036F0003E0084F83F0084F8400084F8410084F8DC
:10370000420084F8430084F8440084F8450084F8BB
:103710003D00002010BD000000B585B000210091E3
:103720000191029103911E4A01681E48914217D1EE
:10373000C16941F00201C161C16901F00201049156
:10374000816941F0200181618069694600F02000B3
:103750000490042000901448FEF7F6FE05B000BD6A
:10376000124A914208D1C16941F00401C161C069A6
:1037700000F004000490F1E70D4A9142EED1C169D6
:1037800041F00801C161C069002200F00800049006
:1037900001213220FFF766F83220FFF755F8DDE708
:1037A00000040040001002400014014000080040E6
:1037B000000C004090F83D10012901D00120704715
:1037C000022180F83D100168CA6842F00102CA6017
:1037D00000680E4988420ED00D4988420BD0B0F1E6
:1037E000804F08D00B49884205D00B49884202D04F
:1037F0000A49884204D1816801F00701062903D0F3
:10380000016841F00101016000207047002C014077
:10381000003401400004004000080040000C00405B
:1038200070B5044690F83C000025012817D0012609
:1038300084F83C60022084F83D002068826822F011
:10384000770222F47F4282600868502838D00DDC6D
:1038500020284FD005DC90B3102811D14AE0022077
:1038600070BD302846D040280AD13BE060282FD0D8
:1038700070280DD0B0F5805F03D0B0F5005F12D096
:10388000012584F83D60002084F83C00284670BD86
:10389000CB68D1E90121206801F02CFE2068816805
:1038A00041F0770109E0CB68D1E90121206801F0FE
:1038B00021FE2068816841F480418160E1E719E0E0
:1038C000CA684968206801F06DFE5021206806E052
:1038D000CA684968206801F076FE6021206801F01E
:1038E00013FECEE7CA684968206801F05BFE4021FC
:1038F0002068F4E7226801461046F0E7704770B58B
:103900000446006801694FF00005C943890715D4D2
:10391000C168C943890711D4E91E016101202077DC
:10392000206880698007204602D0FFF7E7FF04E0A7
:1039300000F098F8204600F096F825772068016995
:10394000C943490717D4C168C943490713D46FF065
:1039500004010161022020772068806910F4407F13
:10396000204602D0FFF7CAFF04E000F07BF82046B3
:1039700000F079F8257720680169C943090716D452
:10398000C168C943090712D46FF00801016104201E
:1039900020772068C0698007204602D0FFF7AEFF7D
:1039A00004E000F05FF8204600F05DF8257720681D
:1039B0000169C943C90617D4C168C943C90613D4EC
:1039C0006FF010010161082020772068C06910F4B1
:1039D000407F204602D0FFF791FF04E000F042F85C
:1039E000204600F040F8257720680169C943C907DF
:1039F00008D1C168C943C90704D1891E01612046A5
:103A000000F032F820680169C943090609D4C16889
:103A1000C943090605D46FF0800101612046FFF714
:103A20000DFE20680169C943490609D4C168C9432C
:103A3000490605D46FF040010161204600F047F8C7
:103A400020680169C94389060BD4C168C943890646
:103A500007D46FF0200101612046BDE87040FFF7F8
:103A6000EEBD70BD7047704700680349884201D1C0
:103A7000FEF772BE70470000002C014070B504468E
:103A800090F83C00012810D0012584F83C50022019
:103A900084F83D00204601F03FFD002138B184F854
:103AA0003D5084F83C10012070BD022070BD20689C
:103AB000C26822F04002C2602068C26822F48042DC
:103AC000C26084F83D5084F83C10002070BD7047FF
:103AD0007047000003480068C16841F02001C160E0
:103AE0007047000010040020F8B50168044608681B
:103AF000CA684B6910F00F0F4FF0000559D003F062
:103B0000010602F49077374365D0C10705D0D1058F
:103B100003D5616C41F001016164410705D5D90706
:103B200003D0616C41F002016164810705D5D907BA
:103B300003D0616C41F004016164010707D502F014
:103B40002001314303D0616C41F008016164616C74
:103B500000293AD0800604D5900602D5204601F00F
:103B6000A4FE20684069616CC0F38010090700D48E
:103B700060B3204601F072FE20684069400621D5FE
:103B80002068143050E8001F21F0400140E8001286
:103B9000002AF5D1E06BA8B16D494163E06BFEF7F7
:103BA0008FFA002811D0E06B416B01B0BDE8F04006
:103BB000084783060FD593060DD52046BDE8F8408B
:103BC00001F073BE2046FFF785FFF8BD2046FFF7E2
:103BD00081FF6564F8BD266B2023012E7CD1C606CB
:103BE0007AD5D60678D508684868009048694FF0BD
:103BF0000206400640D5E16B086840680004000CEE
:103C0000E8D0A28D8242E5D9E085886920282DD0B0
:103C100020680C3050E8001F21F4807140E8001249
:103C2000002AF5D12068143050E8001F21F001016E
:103C300040E80012002AF5D12068143050E8001F37
:103C400021F0400140E80012002AF5D184F842300A
:103C5000256320680C3050E8001F21F0100140E877
:103C60000012002AF5D1E06BFEF706FA6663A08D1C
:103C7000E18D401A81B22AE0A08DE18D401A81B217
:103C8000E08D0028A6D00029A4D020680C3050E890
:103C9000002F22F4907240E80027002FF5D1206811
:103CA000143050E8002F22F0010240E80027002FD6
:103CB000F5D184F84230256320680C3050E8002F9D
:103CC00022F0100240E80023002BF5D16663204665
:103CD000FFF7FEFEF8BDFFE705062BD5150629D533
:103CE00094F841002128F5D1A068B0F5805F01D19A
:103CF0002069B0B1206A411C2162216800784860C7
:103D0000E08C401E0004000CE084E3D12068C16810
:103D100021F08001C1602068C16841F04001C160AC
:103D2000D8E7206A0088C0F308004860206A801C39
:103D30002062E5E74006CDD55006CBD5CA682046BF
:103D400022F04002CA6084F8413000F0F1F8C1E787
:103D50004D58000870B5040004D094F841000025C7
:103D600010B106E0012070BD84F84050204600F0FC
:103D700023F8242084F841002068C16821F4005110
:103D8000C160204601F0F2FD2068016921F49041F4
:103D900001612068416921F02A0141612068C16800
:103DA00041F40051C1606564202084F8410084F82A
:103DB00042006563002070BDF0B585B0002400941A
:103DC00001940294039400682D4F2E49022303228C
:103DD0002D4E2E4DB84225D1C86940F40030C8613F
:103DE000C86900F400300490886940F020008861C0
:103DF0008869694600F0200004902020CDE9000386
:103E000003923046FEF7A0FB4020CDE9000469464E
:103E100030460294FEF798FB686840F0E06040F09E
:103E2000080029E01A4FB84227D1C86940F4802021
:103E3000C861C86900F480200490886940F02000BF
:103E400088618869694600F020000490B815CDE9C2
:103E5000000303923046FEF777FB7815CDE90004A6
:103E6000694630460294FEF76FFB686820F0300028
:103E700040F0E06040F03000686005B0F0BD000048
:103E800000440040001002400014014000000140C6
:103E90000048004070472DE9F843044690F841007F
:103EA0001F4615460E46202802D00220BDE8F883A2
:103EB0007EB175B100206064212084F84100FEF7D6
:103EC00045FCA5848046E584A068B0F5805F02D0FB
:103ED00003E00120EAE7206910B1354600260EE034
:103EE00000250CE08021204601F09CFDA0B9ADB179
:103EF00015F8010B21684860E08C401EE084E08CDE
:103F000043464FF0000200970028EBD14FF04001EC
:103F1000204601F087FD30B10320C7E736F8020BD9
:103F2000C0F30800E6E7202084F841000020BDE748
:103F30007047FEE7044B20B1012280211846FEF7AE
:103F400000BC0022F9E7000000100140044B20B142
:103F5000012280211846FEF7F4BB0022F9E7000099
:103F60000010014070B505460C46808CFCF7ECFB58
:103F70002066688FE087A88FA4F84000E88FA4F837
:103F80004200288F24F83C0F95F8400084F82D005B
:103F900095F8360084F82E0006484089FCF7D4FBDB
:103FA0002061A87994F8301060F3861184F83010FD
:103FB00070BD0000C00500202DE9F041054611F05C
:103FC0001F000C4602F01F01C0F12007C2F3471684
:103FD00088460FD07EB1D01BC0F3471600F01F08F3
:103FE00047B33A462146284602F018FEE01984B24B
:103FF0003D441FE04EB90A460EE0202221462846E5
:1040000002F00CFE2034A4B22035761EF6B2F4D2B3
:10401000B8F1000012D0024621462846BDE8F04122
:1040200002F0FCBD20222146284602F0F7FD203494
:10403000A4B22035761EF6B2F4D2E9E7BDE8F081ED
:10404000FEB50024224800940194204902940160A6
:1040500089158160012505730475042606614FF4F6
:1040600060214460C161FDF7A7FE08B1FDF7BCFC0B
:1040700007200094CDE9015069461548FDF7ACFDD5
:1040800008B1FDF7B1FC0220CDE9005069461048A7
:10409000FDF7A2FD08B1FDF7A7FC0320CDE9006004
:1040A00069460B48FDF798FD08B1FDF79DFC05201A
:1040B000CDE9000669460648FDF78EFD08B1FDF71B
:1040C00093FC0348FDF71AFDFEBD000000240140EB
:1040D00010020020054808B5416941F00101416125
:1040E000406900F00100009008BD0000001002408F
:1040F00010B5244B00220121234803F08FF9234CF3
:10410000E06338B14FF47A7103F0CAF910B120A01E
:1041100001F0E8FC1B4A0221183A042003F08EF853
:10412000A063214A0021214803F026F91E4AE061DC
:10413000243200211E4803F01FF91B4A2062483236
:1041400000211C4803F018F9174A60626C32002104
:10415000194803F011F90B4AA062843A002117486C
:1041600003F00AF9074AE062603A0021144803F0BC
:1041700003F9044A20633C3A0021124803F0FCF89A
:10418000606310BDAC930008D90B0008000000204C
:10419000206F7354696D6572537461727420666127
:1041A000696C656421000000989200085152000873
:1041B00035500008716F0008090E0008C14B000857
:1041C00041480008D11000082DE9F04F85B00024C7
:1041D00048480094019402940394816941F040019D
:1041E0008161816901F040010491816941F0100110
:1041F0008161816901F010010491816941F004013C
:104200008161816901F004010491816941F0080133
:104210008161816901F008010491816941F0200107
:1042200081618069DFF8D0A000F0200004900022B6
:104230005F215046FEF785FA01224FF4C0615046D7
:10424000FEF77FFADFF8B4B04FF4805900224946F8
:104250005846FEF776FA0022C0212948FEF771FA87
:1042600040F21F2001250226CDE90005CDE90246D6
:1042700069465046FEF768F94027CDE90075CDE95B
:10428000025669465046FEF75FF94FF48068CDE963
:104290000085CDE9025669465046FEF755F9CDF83E
:1042A00000900396CDE9015469465846FEF74CF953
:1042B0004FF49260CDE90004694612480294FEF77B
:1042C00043F9CDE90075CDE9025669460C48FEF781
:1042D0003BF980208DE86100694609480396FEF7A6
:1042E00033F9012241465046FEF72BFA05B0BDE8EE
:1042F000F08F00000010024000180140000C014047
:104300000010014000140140094810B50749016040
:104310004FF0FF31416000218160FEF7CDFE0028A3
:1043200003D0BDE81040FDF75FBB10BD0028004082
:1043300084020020104810B50E4901604FF48271CC
:10434000416000218160C1604FF400720161C0E9E9
:1043500005123822C0E90721416281620A21C16247
:10436000FEF7E5FF08B1FDF73FFBBDE81040FF2079
:1043700000F080BE003800409802002010B586B0E2
:10438000002418480094019402940394049414495E
:10439000059401604721C0E9011440F2E731C0E90A
:1043A000031480218161FFF789F908B1FDF71CFB37
:1043B0004FF48050009069460A48FFF731FA08B17F
:1043C000FDF712FB049404A906480594FFF738F999
:1043D00008B1FDF709FB0348FFF7ECF906B010BD83
:1043E000000C0040800300200C4810B50A49016011
:1043F0004FF416514160002181600C22C160C0E978
:1044000004128161C161FFF7A5FC002803D0BDE85B
:104410001040FDF7E9BA10BD00440040C803002079
:10442000FEE7FEE72DE9FC5FB0F902A00446B0F913
:1044300006904FF0000B5046FCF78BF905460E46F0
:10444000D4E90401FBF762FF20F00040FCF7D7F944
:104450002A463346FCF7FEF903D260692062E06128
:1044600042E094F82D804046FCF76EF90746019033
:104470004846FCF760F90090656906462846E16900
:10448000FBF744FF3146FBF747FF3946FBF744FF94
:1044900006460098216AFBF73FFF3146FBF7E4FE32
:1044A000074601980090B4F900603046FCF743F9E4
:1044B0002946FBF731FF0099FBF72EFF3946FBF742
:1044C000D3FE074606FB0890FCF735F9014638464F
:1044D000FBF754FF5549884202DA5549884201D317
:1044E000216200E02062E5615046FCF724F9814634
:1044F0004D46216A2069FBF709FF2946FCF7E8F9D8
:1045000006D84FF47A702081C4F80CB0BDE8FC9F47
:104510004D462169206AFBF7F9FE2946FCF7D8F9D8
:1045200004D8A4F808B0C4F80CB0EFE7D4E904103C
:10453000FCF7C4F927D205219AFBF1F0FCF7FBF850
:104540000746D4E90401FBF7E1FE3946FCF7C0F960
:1045500019D225694E462846216AFBF7D7FE8046C8
:1045600039463046FBF7D2FE074628466169FBF71D
:10457000CDFE3146FBF7CDFE4146FBF7CDFE394679
:10458000FBF7FCFE03E0216A2069FBF7BFFE94F80D
:104590003010890700D40020264E3146FBF7BCFEC0
:1045A00007464D46B4F90000FCF7C5F83946FBF75D
:1045B000B3FE2946FBF7E2FE0546E068FCF7BBF8D0
:1045C0002946FBF751FEFCF7E2F8E060002802DA2A
:1045D0005846C4F80CB0B4F9047090FBF7F0FCF73F
:1045E000AAF80546B04204DB4FF47A7047433546DB
:1045F000E760216A2069FBF789FE3146FBF78CFEF4
:104600004946FBF7BBFE01462846FBF72DFE10F19D
:10461000FF4F02D3A4F808B078E7B04202DD4FF4B0
:104620007A7001E0FCF7B3F820816FE70000DC420C
:10463000000048C200007A440246012040F2424392
:104640009A420DD8C2EBC203064A02EB8302B2F9CA
:104650000230B2F90420994200DA0020914200DDD4
:1046600000207047409600082DE9F0414FF4106497
:104670002146002002F076FD05462146002002F08A
:1046800071FD0446002D48D0002C46D040F6860728
:1046900040F24246002034F81010C94325F81010AB
:1046A000401CB042F7D93A460021284602F07BFA76
:1046B00088B13A460021204602F075FA58B100212F
:1046C000084635F8102034F810309A4207D014A06C
:1046D00001F008FADEE718A001F004FA13E0401C2C
:1046E000B042EED90029D5D1194A1A4B1A4F0020F1
:1046F00034F8101022F8101023F8101027F81010BA
:10470000401CB042F4D92946002002F00FFD21469A
:10471000BDE8F041002002F009BDBDE8F0810000D5
:104720005061724C6F6164204572725374203D2059
:10473000313B2121210D0A005061724C6F616420D0
:1047400072656164206661696C2121210D0A000097
:10475000C0050020480E002002170020F8B50446CE
:1047600040F2424084421CD24FF6FF7000EA4405FA
:104770000C4E022206EB44002946FFF71DFC36F8DA
:104780001400C043ADF8000005240520FDF7CAFE63
:1047900029460222684602F006FA002801D0641E6B
:1047A000F3D5F8BDC00500202DE9F0412148224E87
:1047B000042440F2424130F8142036F814309A4272
:1047C00034D020F81430A0B2FFF7C8FF00271B4DEB
:1047D000042C18D00D2C16D00E2C14D0052C03D080
:1047E000102C01D0112C0CD17089FBF7ADFF55F8BE
:1047F000501FFBF78BFD68616F7705F81F7CEF6337
:104800002F76BDE8F08115F8A20F20F0010005F821
:104810008E093089FBF798FF2968FBF777FD6861FF
:104820006F7785F859702F76AF67EAE7641C8C4282
:10483000C1D3E6E702170020480E00203C200020EC
:10484000002002F0F3FB044901204880FFF7ACFF91
:10485000052002F09DFCF9E7C00500202DE9F04F8E
:10486000B0F86E2089B00E46002A3DD0C0880128DD
:104870003AD140F2537042431D481E4900EB4210AA
:10488000D1F89C2082422FD3DFF86C8091F8790018
:10489000894698F80240844226D1706DFBF7AFFF3D
:1048A000DFF858A0DFF858B052465B46FBF74BFEE6
:1048B00005460F46B069FBF7A2FF52465B46FBF781
:1048C00042FE04AA82E8A30098F8000098F80110BC
:1048D0008DE813000B4883784278C1780AA001F074
:1048E00001F90021C9F89C1009B0BDE8F08F000063
:1048F000B03CFFFF3C200020400000209A9999998D
:104900009999B93F43000020323025642F25303279
:10491000642F2530326420253032643A25303264E9
:104920003A253032642C2025302E3166A1E62C2524
:10493000302E3166252572680D0A000010B50DA0D5
:1049400001F0D0F812A001F0CDF80AA001F0CAF8E9
:1049500016A001F0C7F807A001F0C4F81AA000F0F3
:1049600045F81CA001F0BEF8BDE8104001A001F020
:10497000B9B800002D2D2D2D2D2D2D2D2D2D2D2DAA
:104980002D2D2D2D2D2D2D2D2D2D2D2D0D0A0000F4
:1049900020202020202020BAE3CEC2BAE3CAAACF2A
:1049A000E4202020202020200D0A000020202020AC
:1049B000202053746172742020506F696E7420201F
:1049C000202020200D0A0000537461727420546965
:1049D0006D650000202020202020706172616D65CF
:1049E00074657220202020200D0A00000EB50146BB
:1049F0000AA001F077F80B488278417800788DE8BA
:104A00000700094883784278C17808A001F06AF865
:104A1000BDE80E400DA001F065B8000025730D0A39
:104A200000000000400000204300002032302564D8
:104A30002F253032642F2530326420253032643AFD
:104A4000253032643A253032640D0A002D2D2D2D8B
:104A50002D2D2D2D2D2D2D2D2D2D2D2D2D2D2D2D86
:104A60002D2D2D2D0D0A00002DE9F05F514A0C4629
:104A70000027118801EB410100EB41054E485560CC
:104A8000B0F86C1000EB4101B1F86E68C1880029E4
:104A90007DD05188B1427AD2A98800297ED0698818
:104AA0004181298880460181B5F90400C4F890004D
:104AB0006888FBF749FE216DFBF72BFCDFF8FC90C3
:104AC0004946FBF729FC82462888FBF73DFE6169D1
:104AD000FBF71FFC4946FBF71FFC8346B8F826008E
:104AE000FBF748FE054689462AF00040FBF787FEA3
:104AF0002A464B46FBF796FE0ED8B8F82800FBF77F
:104B000039FE054689462BF00040FBF778FE4B4600
:104B10002A46FBF787FE0BD994F8A000C10707D0FF
:104B200014F8A11F401C60F300012170BDE8F09F44
:104B300094F8A1001F4B40F0010284F8A1205868AE
:104B4000D4F88C50B0F90410C1EB0111B5EB810F12
:104B5000ECD3C4F88C701988491C89B21980801D67
:104B6000586084F8317084F86D706786808808B169
:104B70001D29DBD95888401C80B25880B0420BD325
:104B800014F8A00F401C60F30002627001E00EE018
:104B900004E0A8F80670C9E71F80C7E7C78014F8CB
:104BA000A00F6178401C60F300016170BEE71780C0
:104BB0005780BBE738010020C005002000002041DD
:104BC000124C1148134DA06311484FF6FF766067F1
:104BD00094F8A00080070FD5B5F86C000B49C0EB26
:104BE000001000EB400006EA4000B33080B205EB55
:104BF0004000FFF739FF02E00448FCF7F7FE0A2007
:104C000002F0C6FAE4E70000AD5700083C2000209F
:104C1000353F0008C0050020010901EB810100F0CB
:104C20000F0000EB4100C0B27047002102E00A38DB
:104C3000C0B2491C0A28FAD2090740EA116070473D
:104C40002DE9F04104460025C07B627BA37B42E056
:104C5000012A16D0032A14D0052A12D0072A10D010
:104C6000082A0ED00A2A0CD00C2A0AD0042A10D006
:104C7000062A0ED0092A0CD00B2A0AD0022A0DD0FF
:104C800028E01F2B0CD30C2A05D101221346401C0F
:104C900020E01E2B04D30123521C1BE01C2B02D24C
:104CA00003F1010316E011D183B29E0710D16426EF
:104CB000B3FBF6F706FB173636B94FF4C876B3FBED
:104CC000F6F706FB17331BB91D2303E01D2B01D19B
:104CD000032201236D1C8D42BAD3D1B2E0736173FC
:104CE000DAB2A27300F04EF82073BDE8F08170B51F
:104CF0000546FDF72BFD04464FF47A7606E0FDF7F6
:104D000025FD001BB04201D9032070BD2868406812
:104D10008006F4D52868416841F010014160002008
:104D200070BD70B505460068416821F01001416012
:104D3000FDF70CFD04464FF47A7606E0FDF706FD1C
:104D4000001BB04201D9032070BD2868406880066E
:104D5000F4D5002070BD0068016A406A80B240EA64
:104D600001407047006881698AB2C1698BB281696C
:104D700089B28A4203D0C06961F31F40704743EA99
:104D800002407047F0B56426C1EBC1030925B700A6
:104D9000072403EB01130329B3FBF5F100F5FA60D7
:104DA000114401440AD2401EB0FBF6F201EB90011F
:104DB000B0FBF7F0891A0844001D08E0B0FBF6F2DA
:104DC00001EB9001B0FBF7F0891A0844801CB0FB9E
:104DD000F4F104FB1100C0B2F0BD70B50D460646FB
:104DE0000024FFF784FF48B93168280C0862316855
:104DF000A8B248623046FFF794FF00B10124204674
:104E000070BD70B50D4606460024FFF770FF48B927
:104E10003168280C88613168A8B2C8613046FFF754
:104E200080FF00B10124204670BD00002DE9F0474D
:104E30000021A0F5965240F242435F4F9A4206D8B5
:104E400007EB4000A0F54050B0F9801AB0E05E4D8D
:104E50005A4A5B4EDFF86C915C4CA0F5A060D5F827
:104E60008C304FF03C0C12280CD2DFE800F0090C1B
:104E70000F1215181A203A565F7481878A9295A0EE
:104E8000B2F9001094E0B2F9021091E0B2F9041006
:104E90008EE0B2F906108BE0B2F9081088E0E86FF6
:104EA00001E0D5F884002146FBF736FA32E0B7F886
:104EB0003601FBF75FFC06460F4621462869FBF7E3
:104EC0002BFAA969FBF722FA20F00040FBF797FCC8
:104ED0003B463246FBF7A6FC01D82869E3E7A86900
:104EE00018E0B7F83801FBF745FC0F4606462146A7
:104EF000E86CFBF711FA696DFBF708FA20F0004047
:104F0000FBF77DFC32463B46FBF78CFC01D8E86C96
:104F1000C9E7686DFBF73BFC39E0B5F90000FBF72A
:104F200018FC04460F46B5F9080007E0B5F93C0047
:104F3000FBF70FFC04460F46B5F94400FBF709FCEC
:104F400032464B46FBF7FFFA22463B46FBF76DFB2A
:104F5000FBF736FC1BE01E4D80212846FDF7ECFBDD
:104F6000044610212846FDF7E7FB44EA40011FE014
:104F700095F8A20080071BD5012119E0B3FBFCF0D6
:104F800005E0D5F8900010B1B3FBFCF1401A01B276
:104F90000EE010480088FAE7B7F86C000E4907EBFE
:104FA0004000B0F86E080988401A81B200E0518CC8
:104FB00088B2BDE8F0870000C0050020D0160020B0
:104FC0009A9999999999B93F3C2000200000204175
:104FD00000140140380100203A01002070B50D4650
:104FE000114A41F20271B0F5965F12D3884210D295
:104FF000A0F5965084B2148129B22046FFF71CFB1D
:1050000080B10A4820F81450A0F6880020F8145007
:1050100008E0A0F5A06080B21081192802D20449EE
:1050200021F81050284670BD1C010020480E0020B9
:10503000D0160020FFF768F9002209490948FDF75A
:10504000CEFF002208490748FDF7A2FFFCF7ECFC61
:1050500006490748FFF702FC052002F099F8EBE744
:105060004000002084020020430000203C2000205B
:10507000C005002001B582B04FF47A700090012382
:1050800001AA02A90248FEF7E5F99DF804000EBD49
:105090009802002038B50B46009204460022802179
:1050A00000F008F8002804D0606D40F02000606532
:1050B000032038BD2DE9F8431E4691468846044634
:1050C000089DFDF743FB401B351AFDF73FFB0746E4
:1050D00025480068C0F3CB30684338E0701C37D0F7
:1050E000FDF734FBC01BA84203D215B1009860B392
:1050F0002CE02068416821F0E00141606068B0F573
:10510000827F0BD1A068B0F5004F02D0B0F5806F60
:1051100004D12068016821F040010160A06AB0F567
:10512000005F09D12068016821F400510160206806
:10513000016841F400510160012084F85100002011
:1051400084F850000320BDE8F8830025401E00903D
:105150002068816838EA010004D000204845BDD1AC
:105160000020F0E70120F9E7580000202DE9F05F6A
:105170000C460546D4E90410334E344F4FF0010B72
:10518000FBF7C4F8804695F82800FBF7F3FAB14620
:105190003246BA463B46FBF7D6F906460F4628F09C
:1051A0000040FBF72CFB32463B46FBF73BFB10D89D
:1051B00094F82C10287B814217D9401D84F82C00CC
:1051C00084F831B094F8A10040F0010084F8A10007
:1051D0000BE094F8A00094F8A110401C60F30001CB
:1051E00084F8A110002084F82C00D4E91310FBF7F8
:1051F0008DF8804695F82600FBF7BCFA4A465346E0
:10520000FBF7A1F906460F4628F00040FBF7F7FA36
:1052100032463B46FBF706FB0BD894F86810A87B98
:10522000814204D9401D84F8680084F86DB0BDE85F
:10523000F09F14F8A00F6178401C60F300016170CA
:10524000002004F8380CF2E79A9999999999B93F96
:10525000012001F09DFFFBE72DE9F0410024FFF75D
:1052600003FA0C4D2888B0F5965F10D00A4E40F234
:105270004247C4EBC40006EB8000C08825F8140048
:105280002046FFF76BFA641CA4B2BC42F1D3BDE820
:10529000F0810000C00500204096000810B55020A5
:1052A00080F31188BFF34F8FBFF36F8F03F0E8FDDA
:1052B00018B104494FF080500860002080F3118835
:1052C00010BD000004ED00E030B595B0282168461F
:1052D000FAF7BFFF14210AA8FAF7BBFF18210FA89D
:1052E000FAF7B7FF05204FF4803100248DE8130052
:1052F0000120039004904FF4E010CDE9081002253E
:1053000007956846FDF7B8FC08B172B6FEE70F20B6
:10531000CDE90A054FF48060CDE90C4002210AA8CE
:105320000E94FDF7A7FB08B172B6FEE703200F90BD
:105330004FF4807010904FF4404011900FA8FDF78B
:1053400025FB002801D072B6FEE715B030BD7047CE
:105350000148FEF7D4BA00005804002010B50948EF
:10536000FEF7CDFA0748FEF7CAFA06480068C1689A
:10537000C943C90705D1891E0161BDE8104002F08B
:105380008DBC10BD3803002010B53248FEF7B7FAC7
:10539000314A0021314C1088401C80B21080B0F599
:1053A0007A7F2AD3118014F8680F401C207014F8FB
:1053B0003C0C401C04F83C0CE088401CE08034F8B5
:1053C000360C401C24F8360CE078401CE07014F8D1
:1053D000390C401C04F8390CA08D401CA08534F811
:1053E000300F401C24F8090B14F8A109C00704D0A1
:1053F000D4F88C00401CC4F88C00D4F89C00401CED
:10540000C4F89C00B4F89600401CA4F8960094F8E8
:105410007800421C84F87820642801D384F878103E
:105420000F491048CA8892B194F87820B1F8581101
:105430008A420CD201221021FDF783F934F8700F53
:10544000401C24F83C092088401C208010BD00220C
:10545000F1E7000080030020480000203C200020ED
:10546000C005002000180140F0B502681C4D1D4E1B
:105470001D4FDFF878C01E4B4FF0804EA84209D078
:10548000984207D0704505D0B04203D0B84201D051
:10549000604503D122F070044A682243A84209D033
:1054A000984207D0704505D0B04203D0B84201D031
:1054B000604503D122F44074CA6822434C6922F04B
:1054C0008002224302608A68C2620A688262A8423D
:1054D00001D0984201D10969016301214161F0BD08
:1054E000002C01400004004000080040000C004077
:1054F0000034014010B5846842EA032224F47F445A
:105500000A432243826010BD826822F070020A437F
:1055100042F007018160704770B50268002493680B
:105520004D6823F070031D430B6825F007052B43DE
:1055300093604A6812F00F0F31D11211082A2ED24F
:10554000DFE802F02E2E2E2E0B2127040B69D1E965
:1055500002210068FFF7CEFF22E00A68052A10D07A
:105560000268156A136A23F00103136202689369E3
:10557000096923F0F00343EA0111916100680562B3
:105580000EE0012070BD0A698968006800F00AF821
:1055900006E00A698968006800F015F800E0012457
:1055A000204670BD10B5046A036A23F0010303624C
:1055B000836923F0F00343EA021324F00A020A434A
:1055C0008361026210BD10B5036A046A24F01004FE
:1055D0000462846923F0A00324F4704444EA023294
:1055E00043EA01118261016210BD00002DE9F84F0C
:1055F0000E4604461D46174656491068FAF78CFEBB
:105600000090002004EB400134F91020B1F90210A1
:1056100091427DD0401CC0B2DFF83CA1DFF83CB124
:105620000B28EFD3287834F91000FBF784F80099A1
:10563000FBF744F93BD8287804EB4000B0F90200AE
:10564000FBF779F80099FBF743F930D82D7804EB94
:10565000450034F91590B0F90210A1EB0900FBF7F1
:1056600078F8044606EB450036F91550B0F902000B
:105670008846401BFBF76DF843462246FAF7D5FFF4
:10568000FBF700F904464846FBF755F82146FAF7C0
:1056900043FE06462846FBF74EF83146FAF736FE3B
:1056A000054621460098FAF737FE294634E0B4F95A
:1056B0001600FBF740F80099FBF700F939D2B4F96E
:1056C0001610B4F91480A1EB0800FBF742F8044669
:1056D000B6F91600B6F914600D46801BFBF739F8D1
:1056E00022462B46FAF7A1FFFBF7CCF805464046C9
:1056F000FBF721F82946FAF70FFE04463046FBF780
:105700001AF82146FAF702FE04462946009800E0FE
:105710000DE0FAF701FE2146FAF7A6FDFBF76FF858
:1057200052465B46FAF70FFFFBF7ACF83860BDE86E
:10573000F88FB4F90000FAF7FEFF0099FBF7C8F8FC
:10574000F5D328780B2801D2401C00E000202870F7
:10575000EDE70000000020419A9999999999B93F85
:1057600070B505460C46C08BFAF7EEFF6062688D97
:105770006080A88DA080E88DE080688E208095F8FC
:10578000340084F82D0095F8300084F82E00064887
:105790000089FAF7D9FF2061A87994F8301060F3F6
:1057A000861184F8301070BDC0050020044B20B174
:1057B000012240211846FCF7C4BF0022F9E700008F
:1057C00000100140044B20B1012240211846FCF793
:1057D000B8BF0022F9E700000010014010B5124CDC
:1057E00012480022A1790170217A417001461048C7
:1057F000FDF728FD08B1FCF7F7F80C48A178C01CAC
:1058000000224170217981702178A1F5FA61C1707F
:1058100001460748FDF7B4FC002803D0BDE810405E
:10582000FCF7E2B810BD0000D016002040000020B8
:105830008402002010B502F0BBFA002805D0D0E9A0
:105840000012BDE810401046084710BD10B5406A70
:105850000021C185C184FEF73DF910BD01680C31FE
:1058600051E8002F22F4907241E80023002BF5D17B
:105870000168143151E8002F22F0010241E80023B1
:10588000002BF5D1016B012909D101680C3151E8D8
:10589000002F22F0100241E80023002BF5D1202137
:1058A00080F8421000210163704708B590F842105B
:1058B000222901D0022008BD81684FF4805399420B
:1058C00001D1026922B1826A99421BD049B10AE032
:1058D0000268816A5268C2F308020A80816A891CE0
:1058E00008E0016971B10168496801F07F01117038
:1058F000816A491C8162C18D491E0904090CC18558
:1059000003D01BE001684968F1E70168CA6822F02A
:105910002002CA600168CA6822F48072CA60016805
:105920004A6922F001024A61202180F842100021D8
:105930004163026B012A03D0FEF7ACFA002008BDD8
:10594000016301680C3151E8002F22F0100241E898
:105950000023002BF5D101680A68D20602D50A6837
:1059600049680091818DFEF7B3F8E7E770B504460A
:1059700000680169E26821F4405111430161A168A6
:1059800020690143606901432068C26841F20C63E9
:105990009A430A43C26020684169A26921F44071B8
:1059A000114341611E492068884202D1FDF72EF95A
:1059B00001E0FDF71BF900EBC00101EB001160688D
:1059C00064228000B1FBF0F3B3FBF2F36FF0180632
:1059D0007343B1FBF0F5B1FBF0F605EB8305322321
:1059E00003EB0515B5FBF2F5B6FBF2F605F0F00595
:1059F00005EB0615B1FBF0F6B1FBF0F0B0FBF2F0F1
:105A00006FF01801484306EB800003EB0010B0FB79
:105A1000F2F0216800F00F002844886070BD00009B
:105A2000003801402DE9F0411E46174688460446DD
:105A3000069D26E0681C24D025B1FCF787FE801B5C
:105A4000A8421ED920680C3050E8001F21F4D07104
:105A500040E80012002AF5D12068143050E8001FF9
:105A600021F0010140E80012002AF5D1202084F83D
:105A7000410084F84200002084F840000320BDE883
:105A8000F0812068016838EA010004D00020B842A3
:105A9000D0D00020F3E70120F9E700000148FEF72D
:105AA00023B80000C803002010B50C48FEF71CF80E
:105AB0000A4C2068C168890604D56FF02001016096
:105AC00002F0F2F82068C168090606D56FF080017F
:105AD0000160BDE8104002F0EDB810BD10040020D8
